:020000040002F8
:1060000070520020C1630200C9630200CB6302002A
:10601000CD630200CF630200D163020000000000E4
:10602000000000000000000000000000D363020038
:10603000D563020000000000D7630200D9630200AC
:1060400061670200DB630200C56A0200DB630200D5
:10605000DB630200DB630200ED640200DB6302002D
:10606000DB630200DB630200DB630200DB63020030
:10607000DB630200DB630200DB630200DB63020020
:10608000DB630200B5670200DB630200DB63020032
:1060900075680200DB6302007D680200DB630200BA
:1060A000DB630200DB630200DB630200DB630200F0
:1060B000DB630200DB630200000000000000000060
:1060C000DB630200DB630200DB630200DB630200D0
:1060D000DB630200DB630200DB630200DB630200C0
:1060E000DB630200DB630200DB63020000000000F0
:1060F00000000000DB63020000000000DB63020020
:10610000000000000000000000000000000000008F
:10611000000000000000000000000000000000007F
:10612000000000000000000000000000000000006F
:10613000000000000000000000000000000000005F
:10614000000000000000000000000000000000004F
:10615000000000000000000000000000000000003F
:10616000000000000000000000000000000000002F
:10617000000000000000000000000000000000001F
:10618000000000000000000000000000000000000F
:1061900000000000000000000000000000000000FF
:1061A00000000000000000000000000000000000EF
:1061B00000000000000000000000000000000000DF
:1061C00000000000000000000000000000000000CF
:1061D00000000000000000000000000000000000BF
:1061E00000000000000000000000000000000000AF
:1061F000000000000000000000000000000000009F
:10620000DFF80CD000F034F900480047A1940200F8
:106210007052002030B450E8012F93B2C489234457
:106220008489A34228BF1B1B0489A34202BFBFF37A
:106230002F8F002007E0C3EA020340E80134002C5E
:10624000E9D14FF001000A6030BC704750E8012FDF
:10625000C2EA024240E801210029F7D1704730B478
:1062600050E8022F1FFAA2F3C488A34202BFBFF373
:106270002F8F00200DE0C48923448489A34228BFC6
:106280001B1BC2EA034340E80234002CE8D14FF064
:1062900001000A6030BC704750E8022FC2EA224277
:1062A00040E802210029F7D17047034653E8022F46
:1062B000D988B2EB324F4FF0000017BF92B241EADB
:1062C000014142EA014104E05A68B2EB324F08BF93
:1062D000012043E80212002AE8D1704730B4044696
:1062E00054E8000F0D4644E80053002BF8D1156028
:1062F00030BC704730B4044654E8000F40EA010552
:1063000044E80053002BF7D1156030BC704730B41F
:10631000044654E8000F00EA010544E80053002B4E
:10632000F7D1156030BC704730B4044654E8000F14
:1063300080EA010544E80053002BF7D1156030BC1A
:10634000704730B4044654E8000F00EB010544E800
:106350000053002BF7D1156030BC704730B40446B1
:1063600054E8000FA0EB010544E80053002BF7D1DF
:10637000156030BC704770B404464FF0000054E81C
:10638000006F0D68AE4207BF44E80023012044E8D7
:1063900000630E60002B1CBF0020F0E770BC70474C
:1063A00030B4044654E8000F88422CBF451A054615
:1063B00044E80053002BF5D1156030BC7047000055
:1063C0000648804706480047FEE7FEE7FEE7FEE78F
:1063D000FEE7FEE7FEE7FEE7FEE7FEE79568020060
:1063E00001620200004870479CE1020040EA01039C
:1063F0009B0703D009E008C9121F08C0042AFAD27B
:1064000003E011F8013B00F8013B521EF9D270473E
:10641000D2B201E000F8012B491EFBD270470022E6
:10642000F6E710B513460A4604461946FFF7F0FF93
:10643000204610BD421C10F8011B0029FBD1801A18
:10644000704730B504460020034600E05B1C9342D1
:1064500003D2E05CCD5C401BF8D030BD034611F8A0
:10646000012B00F8012B002AF9D1184670470000D3
:10647000064C074D06E0E06840F0010394E8070091
:1064800098471034AC42F6D3FFF7BEFE20F002006E
:1064900040F0020070B58C1810F8015B15F007038E
:1064A00001D110F8013B2A1106D110F8012B03E0AD
:1064B00010F8016B01F8016B5B1EF9D12B0705D4B5
:1064C0000023521E0DD401F8013BFAE710F8013BFE
:1064D000CB1A921C03E013F8015B01F8015B521E1A
:1064E000F9D5A142D8D3002070BD00002DE9F04FAE
:1064F0008DB0002700200B900C904FF480700A9014
:106500000126002412E00A9803F0B4FE40B100BF57
:106510007E480068304018B10A9803F09DFE37436A
:1065200076000A98001D80B20A90641C082CEAD3F9
:106530004FF4BE7003F09EFE50B14FF4BE7003F0F6
:106540008BFE47F000470BAA0221002003F068FEF3
:10655000F8B200B3012600241BE006EA0700B0B140
:1065600000BF6B4850F82400C0F30520804600BFF0
:10657000674850F82400C0F301408146204600F0EF
:10658000DBFF054615B149464046A84700BF7600E7
:10659000641C082CE1D307F0004000287DD04FF0A8
:1065A000000B002008900990002505E04FF0FF3017
:1065B00006A941F825006D1C022DF7D300BF4FF04E
:1065C000000B002463E05348005D0590059820F01F
:1065D000C00004904F480057401C002856D006A920
:1065E000049803F014FA002850D005984FEA901947
:1065F000049800F0A9FF804600F09EFF03900398E6
:1066000010B9B9F1030F40D1B9F1030F03D108A9B3
:10661000049803F007FA0498029002A803F0F0FD32
:106620000190019800F5E060029950F82100C0F354
:10663000014800BF0BA9049803F0E9F98246BAF1BA
:10664000000F02D0B8F1020F05D0BAF1000F1BD134
:10665000B8F1030F18D1B9F1030F0FD1B8F1020F40
:1066600001D1032000E0022002900299049803F077
:10667000A9FD0BF1010000F0FF0B00BF039818B15A
:106680004946DDE90320904700BF00BF641C042C8D
:1066900099D3BBF1000F31D000E034E04FF0010896
:1066A00004AA0221002003F0BBFD00250BE004A892
:1066B00050F825000BA951F82510884202D04FF060
:1066C000000802E06D1C022DF1D300BFB8F1000FED
:1066D00002D04FF0000B10E000250CE004A850F8A9
:1066E00025000BA941F8250008A850F8250006A9A7
:1066F00041F825006D1C022DF0D300BFBBF1000F47
:106700007FF45DAF00BF0DB0BDE8F08F04630040C3
:10671000106500406427002000F01F020121914015
:10672000024A430942F823107047000080E200E06B
:1067300000F01F02012191404209920002F1E02283
:10674000C2F800117047000000F01F0201219140C3
:10675000024A430942F823107047000000E200E0BB
:1067600010B54FF4807003F068F980B14FF4807079
:1067700003F06CF9012003F073F90D48407930B94A
:1067800001200B49487108460168002088474FF4F2
:10679000827003F052F950B14FF4827003F056F951
:1067A000022003F05DF9024801680120884710BD0E
:1067B0007022002010B50020094908600021094816
:1067C000C0F84411C0F84811C0F84C110020054928
:1067D000C1F8000102493C39086006F049FE10BDCD
:1067E000401101400010014010B500F073F910BDD8
:1067F0002DE9F047074688461646C24607EB470193
:106800001B4800EBC109D9F8140020B1012811D0B0
:10681000022826D11EE0484600F094F90546B5420C
:1068200001D2002405E0344632465146484600F085
:10683000D0F918E0484600F085F90546B54201D286
:10684000284600E03046044622465146484600F0BD
:10685000C0F908E032465146484600F081F9044646
:1068600001E0002400BF00BF2046BDE8F087000023
:10687000FC2F002010B506F005FD10BD10B504F08A
:106880003BFA10BD01480249086070470090D003F0
:106890002C23002010B501F0ADF840B1002079495B
:1068A00008604FF08041C1F810017749086001F09D
:1068B000BDF8002855D075480068754908607348D0
:1068C000001D0068091D0860704808300068091D37
:1068D00008606E480C300068091D08606B48103075
:1068E0000068091D0860694814300068091D0860C7
:1068F00066481830006866492031086063481C30DB
:106900000068091D0860614820300068091D0860A2
:106910005E4824300068091D08605C482830006823
:10692000091D086059482C300068091D0860574847
:1069300030300068564940310860544834300068AF
:10694000091D0860514838300068091D08604F482B
:106950003C300068091D08604C4840300068091D43
:10696000086001F07FF810B14A484B49086000F018
:10697000FBFF10B1FB204949086001F003F838B172
:10698000474801784748006861F3030045490860BB
:1069900001F006F818B14FF400704349086001F0A7
:1069A0000DF840B14148006800F0010018B16FF0E7
:1069B00001003E4908603E48006840F470003C49D0
:1069C000086000BF00BF00BFBFF34F8F00BF00BF14
:1069D00000BF00BF00BF00BFBFF36F8F00BF00BF8D
:1069E00000BF3448006800F0004030B93148001D55
:1069F000006800F00040002840D001202E490860C7
:106A000000BF2E4800680028FBD0122029490860EA
:106A100000BF2A4800680028FBD012212548001D2D
:106A2000016000BF254800680028FBD000202249F3
:106A3000086000BF214800680028FBD000BF00BFED
:106A400000BF00BF00BFBFF34F8F00BF00BF00BF3C
:106A500017487C38006800F4E06019490843001DBD
:106A600013497C39086000BF00BF00BFBFF34F8FE0
:106A700000BF00BF00BF00BF00BFFDE7FFF702FF80
:106A800010BD00000C010040380500400404001057
:106A900020C50040488103008C56004018F5004096
:106AA00058020010E40E00404096024000040040EE
:106AB00088ED00E00012001004E5014000E4014010
:106AC0000000FA0510B502490868804710BD0000B3
:106AD0007822002010B5124C02202061606111A0C4
:106AE000A0611349E1614FF4007121620021A162AC
:106AF0006162E1620BA0A0640E49E164102121658E
:106B00000021A1656165E1650BA1E01DFFF7A6FC11
:106B10000AA12046FFF7A2FC2020A07110BD0000B2
:106B2000E42F00205465726D696E616C00000000F6
:106B30005C3000205C3200205254540053454747DB
:106B40004552000010B501460A69CB689A4204D844
:106B50008C68641EE41AA01801E0D41A601E10BDEF
:106B60002DE9F0470446894617464FF0000AE568CC
:106B700000BFD4F81080A84503D9A8EB0500461E35
:106B800004E0A5EB0800401CA1680E1AA068401B99
:106B9000B04201D9304601E0A068401B0646BE4223
:106BA00001D2304600E03846064661684819324650
:106BB0004946FFF71BFCB244B144BF1B3544A068F3
:106BC000A84200D10025E560002FD2D15046BDE893
:106BD000F0872DE9F047044689461546E668A06827
:106BE000871BAF4208D9616888192A464946FFF7D2
:106BF000FDFB7019E06010E0B846616888194246F4
:106C00004946FFF7F3FBA5EB070809EB07014246EE
:106C10006068FFF7EBFBC4F80C80BDE8F08702E08A
:106C200008C8121F08C1002AFAD170477047002017
:106C300001E001C1121F002AFBD170470146202943
:106C400008DA012088400A4A104008B10120704744
:106C50000020FCE7402909DAA1F12000012202FA14
:106C600000F008B10120F2E70020F0E70120EEE794
:106C7000FC06FFBD00BFEFF31081084672B67047F7
:106C800070B505460C4605B10CB9002070BD2878DA
:106C900040082178B0EB510F01D00020F6E7062222
:106CA000611C681CFFF7CDFB08B90120EEE700204E
:106CB000ECE7014601F0030008B90120704700200D
:106CC000FCE7024650680068401E084008B90120F1
:106CD00070470020FCE710B50346D868884206D804
:106CE0008818401E1C69A04201D8012010BD002058
:106CF000FCE7000010B504466CB10848C068A0422B
:106D000009D806480069A04205D3204602F0D3F80E
:106D100008B1012010BD0020FCE700003023002056
:106D200070B58CB004460D461646002005E0C0F153
:106D30000F01615C0DF80010401C1028F7D30D21E5
:106D400004A8FFF76CFB002005E02A5CC0F10F03EC
:106D500004A9CA54401C0328F7D3684646DF002024
:106D600005E0C0F10F0208A9895C3154401C0328DA
:106D7000F7D30CB070BD000010B50446024801788E
:106D8000204600F031FA10BD5722002072B600BF35
:106D900003F0D0FD00BF00BF03F062FB0028FBD171
:106DA00000BF00BF1D491E4A891AC908012242EAD4
:106DB00001401CA103F0E0FC00BF1D48006800F08A
:106DC000010000B100BE00BF1449154A891AC90864
:106DD000022242EA014017A103F0CEFC00BF00BF2F
:106DE00000BF00BF00BFBFF34F8F00BF00BF00BF99
:106DF0000F48E438006800F4E06012490843001DC1
:106E00000B49E439086000BF00BF00BFBFF34F8FDC
:106E100000BF00BF00BF00BF00BFFDE7E0F0020001
:106E200050F00200466174616C206572726F7200EE
:106E3000F0ED00E053797374656D207265736574CD
:106E4000000000000000FA053EB504460020009056
:106E50000190029002946A46002144F20100FFF77B
:106E600095FF3EBD2DE9F04104460E4617462546E6
:106E700000BF1048807810B90820BDE8F08100BF3D
:106E80000CB90820F9E7052E01D20720F5E768695B
:106E900008B90820F1E7687C012801D1304600E0FC
:106EA000002080463B4642463146284606F090FA8E
:106EB000E3E700007027002070B50446254600BFB8
:106EC0000848807808B9082070BD00BF0CB1686917
:106ED00008B90820F8E7002028740221284606F0A7
:106EE000A6FAF1E77027002010B50446204605F009
:106EF000D5FB10BD70B5044625460E488068B0B17C
:106F0000ADB9FFF7B7FE06460A4800680A490860AF
:106F1000084840684FF0E021C1F80401002005490D
:106F200088601EB900BF62B600BF00BF00BF00BFCF
:106F300070BD00001C2A002000E100E070B504468E
:106F40000D46204602F036F970BD10B5044663794F
:106F500003F003022179208802F046F810BD10B535
:106F60000446207918B9204600F008F803E02046CE
:106F7000FFF7EBFF00BF00BF10BD00002DE9FE438F
:106F800007463E884FF000080022594801783046F5
:106F900000F040F97879C0F3800028B90021384624
:106FA00004F082F9BDE8FE8306F5807188B201AB7A
:106FB0000122072104F058FA0546C5B1284603F01E
:106FC00053FF81464B494C4A891AC908012242EABB
:106FD000014033464A46494903F0E4FB294630461E
:106FE00005F0DEFD0021384604F05EF9DAE73046B0
:106FF00001F092FD04464FF6FF718C421BD10298BE
:1070000001F0DAFC04464FF6FF70844213D02146AB
:10701000304601F05FFD3046FFF7AEFE58B930460E
:1070200005F050FD3046FFF7A7FE20B90021384695
:1070300004F03AF9B6E74FF6FF7084421FD104F02E
:10704000C5FB04464FF6FF70844212D129492A4AF3
:10705000891AC908012242EA014029A103F08CFBE8
:107060000421304605F09CFD0021384604F01CF94F
:1070700098E72146304601F02DFD4FF0010806F556
:10708000807188B22246072104F076FA054625B9B8
:107090000121384604F008F928E0862D07D1304652
:1070A00005F042FD0121384604F0FEF81EE02846B6
:1070B00003F0DAFE81460F490F4A891AC9080122F6
:1070C00042EA014033464A461A49009403F07AFBEB
:1070D0002946304605F064FD0021384604F0E4F806
:1070E000B8F1000F02D0204601F0FEFC00BF59E7C6
:1070F0005422002090F0020050F0020060E70200ED
:10710000436F756C64206E6F7420616C6C6F63618B
:107110007465206E657720706565725F69642066AE
:107120006F7220696E636F6D696E6720626F6E6447
:107130002E0000000CE80200002114E00C48D0F8FA
:107140001024012308E000BFD0680079884201D1F3
:10715000002303E0D0680268002AF4D100BF0BB11D
:1071600008467047491C0A29E8DB4FF0FF30F8E772
:10717000C02B002010B50446204600F069F820B16D
:107180002146034802F04BFB10BD0020FCE7000045
:10719000A423002070B504460D461646204606F08E
:1071A00047FA08B9002070BD034951F8240032465F
:1071B000294600F0D7FEF6E7AC23002070B5044660
:1071C0000025204600F044F850B12146054802F061
:1071D00026FB06460EB1022000E00120054600BF56
:1071E000284670BDA023002070B505460C462046F9
:1071F00006F01EFA50B1284600F02AF830B10449D2
:1072000001EB8400294602F00AFB70BD0020FCE778
:10721000AC23002070B505460C461646204606F005
:1072200007FA88B1284600F013F868B136B107496B
:1072300001EB8400294602F001FB05E0034901EB64
:107240008400294602F095FA70BD0000AC230020AE
:1072500010B50446142C01DB002010BD2146024865
:1072600002F0DDFAF9E700009823002070B504462B
:107270000D462088102806D0112808D012280ED0DC
:10728000502810D107E0204603F098FE0CE020467D
:1072900003F0CCFE08E0204603F024FF04E0204683
:1072A00003F074FE00E000BF00BF70BD2DE9F041A7
:1072B00004468846A5882088102804D0112815D0B7
:1072C0001A2847D116E005F0E3F8284604F06AFFD3
:1072D00020B900BF0420FFF7B7FD06E0E07B0128DE
:1072E00003D029461D4802F0A9FA33E0284605F0EC
:1072F000F3F82FE0207A0121B1EB101F01DA012011
:1073000000E000200646207A0221B1EB101F01DACE
:10731000012000E0002007468EB129460F48001DDD
:1073200002F08CFA2FB129460C48083002F086FA98
:107330000FE029460948083002F01BFA09E0294607
:107340000648001D02F015FA29460448083002F0EC
:1073500010FA00BF00BFBDE8F0810000A0230020AC
:1073600070B504460D4600BF0748007800B970BDEF
:1073700000BF204601F08AFA204605F031FD204684
:1073800000F094FF00BFF2E74422002070B50446ED
:10739000204606F0BFF8054605F0010070BD00006C
:1073A0002DE9FC4704460D461646A71C4FF0010880
:1073B0000020019001A8FFF797FD30480068286081
:1073C0002E4800682D494968411A2C488068401CA5
:1073D000A0EB010915E00121294802F053FA01F060
:1073E000FBFF82465146264802F04CFA23480068CB
:1073F00022494968411A21488068401CA0EB0109D4
:1074000000BF4F45E7D8B8F1000F30D00021009100
:1074100076B1009921F00301491C0091009921F0F7
:107420000401091D0091009964F3891100910DE098
:10743000009921F00301891C0091009921F00401B9
:10744000091D0091009964F39F5100910B4909684F
:107450000A4A92681140094A0C3202EB81000099F5
:1074600001600649096839440C3A116000BF9DF873
:107470000400FFF73FFD4046BDE8FC87C02B00201D
:10748000DC2F002070B504460D46A168481CA060A2
:1074900020684554D4E90110884202D3204602F006
:1074A00036FB70BD0448406803490968884201D131
:1074B000012070470020FCE7C02B00207CB504466B
:1074C000204601F029FB054600236A46092104F005
:1074D000D1F8052805D10122024801782046FFF79E
:1074E00099FE7CBD282200207CB504460E46002073
:1074F000019042F6A620ADF8040001208DF80600A8
:107500000448006800906A4601A92046A0DF0546AD
:107510007CBD000004DD020001468879012809D104
:107520000879012806D1488842F60212904201D11A
:10753000012070470020FCE70146024850F8210076
:10754000704700000427002001460148405670475C
:10755000342700202DE9F04104460D464FF6FF7612
:10756000304684420AD14FF48071284602F027F950
:1075700086B2B6F5807F10D126460EE0FF2C0CDCDB
:107580002146284602F004F980F001070FB1204699
:1075900001E04FF6FF70064600BF3046BDE8F081BF
:1075A00070B505460DB9094C01E0084C083409E0F6
:1075B000204601F088FC064606B904E028467168BA
:1075C000884700BFF4E700BF70BD0000F826002028
:1075D00010B504462CB90120064948700020FFF779
:1075E000DFFF012C04D1012002498870FFF7D8FF8A
:1075F00010BD0000F02600202DE9F04782461F480C
:107600000068002836D01D480068056804F09AFF1D
:1076100007461B4804682146384605F027FEC61C6D
:107620001848007808B904F093FFAE4201D228460A
:1076300000E03046044424F07F44204604F07CFF00
:1076400004F080FF80463946404605F00FFE00F109
:1076500003093946204605F009FE814509D904F0A1
:1076600071FF814604F068FF2F2003F037FC05F01E
:107670004BFF01E004F08AFFBDE8F0878022002084
:10768000842200209222002033B58BB005460020D2
:1076900000900C9878B100240BE021460CA802F071
:1076A000BEF828B1009A501C009001A820F81240A2
:1076B000641C142CF1D32C2269462846FEF796FE52
:1076C0000DB030BDF8B505460C46607A88B9207A11
:1076D00010B91048476801E00E4887682A463946C5
:1076E0006068FFF7BFFB064616B1304605F0FCF9AF
:1076F0000EE0002020720748406948B101208DF853
:107700000000ADF80250034841696846884700BF51
:10771000F8BD000078230020F0B587B004460D4680
:1077200017461E4618220B4901A8FEF75FFEADF86A
:1077300006408DF80C50ADF80E708DF810600022E8
:10774000054801782046FFF765FD01A800F0BCFA66
:1077500007B0F0BDC8DD02005422002010B586B08D
:107760000446208803F056FD00BB2088FFF702FD89
:1077700030B92088012241F2060100F0B5F815E089
:10778000208800220A490978FFF744FD02208DF87D
:1077900000002088ADF8020000208DF808000021CC
:1077A0008DF80910684600F08FFA00BF06B010BDD2
:1077B000542200202DE9F04105460F460F4C0121CF
:1077C000204602F096F8064600BF00BF00BF00BF8B
:1077D000BFF35F8F00BF00BF00BF0EB9012000E004
:1077E000002040B1284601F053FD08B1BDE8F0810A
:1077F000024803F0BBF900BFF8E700002022002098
:1078000070B506460D460EB1012070BD287920B135
:10781000012809D0022813D10FE002202871284640
:1078200004F01AFD04460DE0284600F055FB04461E
:107830000A2C01D141F61D5404E041F61D5401E02B
:107840000F2400BF00BF2046DFE770B50446207953
:107850003D2802D141F23D0001E04FF48850054639
:1078600020880022294601F0BFFB70BD10B5002121
:10787000034802F03EF8044684F3100010BD0000F7
:10788000DC2F0020014614480078144A12789042F8
:107890001DD011480078401C0F4A10701046007827
:1078A000022801D1002010700D480B4A127850F8C0
:1078B000220008600B4A086812681044094A1060E8
:1078C0001046006820F07F401060012070470020C3
:1078D000086000BFFAE700009022002091220020FB
:1078E000882200208422002070B506460C461546EA
:1078F0002B46224600213046FFF70EFF70BD0000E8
:107900002DE9F84305460E46174698466946104845
:10791000006801F0F6FE044614B90420BDE8F883BF
:107920001C212046FEF77BFD012020712560C4F854
:10793000088008480068B6FBF0F0E06067616946BF
:107940000348006801F007FF04F0BCFB0020E5E7F6
:10795000ECDE0200E0DE020010B50446D4E90321AB
:10796000501828DF10BD000005480068082805D120
:107970000348001D006808B9012070470020FCE79B
:107980003001001005480068082805D10348001D93
:10799000006808B9012070470020FCE730010010A2
:1079A00005480068082805D10348001D006808B98B
:1079B000012070470020FCE7300100100C480068EF
:1079C000082812D10A48001D006808B90120704734
:1079D0000748001D0068012800D1F8E70448001D91
:1079E0000068022801D10120F1E70120EFE7000043
:1079F000300100100C480068082812D10A48001D08
:107A0000006808B9012070470748001D0068012878
:107A100000D1F8E70448001D0068022801D10120C8
:107A2000F1E70120EFE70000300100100C4800688A
:107A3000082812D10A48001D006808B901207047C3
:107A40000748001D0068012800D1F8E70448001D20
:107A50000068022801D10120F1E70120EFE70000D2
:107A60003001001005480068082805D10348001DB2
:107A7000006808B9012070470020FCE730010010C1
:107A80000278072A38D2DFE802F037040712222BE7
:107A9000340000220A7030E001220A7003898B81D1
:107AA0008388CB81C2688A6000230B7425E00222A0
:107AB0000A7003898B818388CB81C2688A60827D4A
:107AC000062A01D1012300E000230B7415E00322F4
:107AD0000A70C3888B810389CB81C2688A600CE0FD
:107AE00004220A70C3888B810023CB8100228A6024
:107AF00003E005220A7000E000BF00BF70470000ED
:107B000070B50546002409E0064850F8240020B16D
:107B1000044850F8241028468847641C042CF3D3EA
:107B200070BD00007C28002030B587B004460D46AB
:107B30002068806808B907B030BD182101A8FEF799
:107B40006EFC0295A0680690207910B1012815D12D
:107B500009E001208DF8040020690390E06804909A
:107B6000606905900BE002208DF804000749E06889
:107B70000968484303906069059000E000BF00BFBA
:107B80002068816801A8884700BFD4E7E0DE0200D2
:107B9000F0B587B005460C461646002C4BD0112C8C
:107BA00049D0082C47D0182101A8FEF738FCADF8C1
:107BB0000650284600F0B0FFADF808000D2C1FD18C
:107BC0001E491F4A891AC908022242EA01402A4670
:107BD0001C4902F0DBFD03208DF804002EB1307843
:107BE00000F0010008B1012000E002208DF80C0037
:107BF00000218DF8101041F20111ADF80E1016E0C1
:107C0000204603F031F907460C490D4A891AC90884
:107C1000012242EA01402B463A460B4902F0C2FDDE
:107C200007208DF80400039400218DF8101001A89E
:107C300000F05EF800BF07B0F0BD000098F0020051
:107C400050F00200C8E80200D8E9020010B504466E
:107C5000204600F04DF810BD70B50446608800F075
:107C60005BFFA080002505E0044850F82510204661
:107C700088476D1C002DF7D070BD00001822002031
:107C800070B50546002405E0044850F82410284645
:107C90008847641C022CF7D370BD000048DD020049
:107CA00070B50546002405E0054850F82410284624
:107CB0008847641C034800788442F5DB70BD0000EF
:107CC000A42600205222002070B50446608800F0EF
:107CD00023FFA080002505E0044850F82510204629
:107CE00088476D1C002DF7D070BD00007CDD0200C0
:107CF00070B50546002405E0044850F824102846D5
:107D00008847641C002CF7D070BD000008DE02001C
:107D1000F0B5034600241FE0124E306806689E420C
:107D200003D90668F61A06601AE006689B1B066807
:107D30003444002606600B4E35680A4FC6693E6023
:107D4000C66846B10E1926F07F464660C668866052
:107D50001668C661156000BF024800680028DBD1C4
:107D600000BFF0BD8022002038B505460E480078DF
:107D700008B9022038BD4FF6FF70854201D10420BA
:107D8000F8E7684604F08EF804460CB90820F1E7DD
:107D90000520207001202071E580684604F092F8EB
:107DA00004F084F90020E5E79422002038B5044669
:107DB0000CB9052038BD6946204604F06BFA00B3C3
:107DC000BDF8000000EB80000F4901EB8000C068A7
:107DD000A8B1A07A98B1BDF8000000EB800001EBDB
:107DE0008000C068401EBDF8001001EB8101064A0A
:107DF00002EB8101C8600020A072002502E0062588
:107E000000E00A252846D5E7282900207FB514463A
:107E10001D462B46224601A9684604F0D7F904B056
:107E200070BD37B50C4615462B46224669460020E4
:107E300004F0CCF93EBD37B50C4615462B4622461C
:107E40000021684604F0C2F93EBD024602B109B9FC
:107E500005207047106808600020FAE7F8B504466E
:107E60000D4604B10DB90520F8BD6946204604F061
:107E700011FAA0B16668BDF8001001EB8101094A52
:107E800002EB810101F10C00012101F0FBFC2E60ED
:107E900060680C3068600120A0720020E4E70A20CE
:107EA000E2E700002829002070B504460D460CB911
:107EB000052070BD032300222946204605F0B2FDAF
:107EC000F7E770B504460D460223002229462046F6
:107ED00005F0A8FD70BD00003EB504460A4B6A4699
:107EE0000021A01D04F072F9054635B9064A9188B3
:107EF000019804F049FA054603E0034800210160B7
:107F0000416028463EBD0000B02200200146A1F598
:107F1000404080B2704700002DE9F04106460C4613
:107F200015460027112C01D1012700E0002765B17B
:107F30003A460A4801783046FFF76CF900220848B3
:107F400001783046FFF766F905E03A4604480178C3
:107F50003046FFF75FF9BDE8F08100006F22002096
:107F60006C220020F7B50D4617460DB90020FEBD66
:107F70000026009868B1002409E02146684601F017
:107F80004EFC18B1A0B23946A847761C641C142CCC
:107F9000F3D33046EBE710B50446606803F0DEFF2C
:107FA00010BD000070B505460DB1012070BD184828
:107FB000007B18B100201649087301E000F0DEF8DC
:107FC0001348007808281DD2DFE800F01C04080CD4
:107FD000101C141800F03EF8044615E000F0BCF840
:107FE000044611E000F098F804460DE000F046F871
:107FF000044609E000F02CF9044605E000F03AF9E7
:10800000044601E00F2400BF00BF2046CEE7000079
:10801000502900200D480089401C0C49088100208F
:108020004880087300BF0DE000EB8001084A12F899
:10803000211009B9012200E0002204490A310A5442
:10804000411C88B20228EFDB704700005029002055
:108050002829002010B5084800F036F840B9002063
:108060000549891E08704880486041F61D5010BDC2
:1080700000F072F8FBE700005229002070B50F48AD
:10808000458805EB85000E4901EB8000C06878B992
:1080900004200A49087005EB8500094A02EB8000BC
:1080A000002301224168074801F038FE044602E03F
:1080B00000F090F80446204670BD000050290020D2
:1080C000282900203023002010B50146002200207E
:1080D00018E00F4B1B5C9BB100240D4B1C5400EBB4
:1080E00080030C4C04EB8303DB684BB900EB80038B
:1080F00004EB83031B7C012B02D10880012203E0E7
:10810000431C98B20228E4DB00BF104610BD0000FB
:108110005A29002028290020F8B50C4844680C484A
:1081200000680B49898800EB81056088C01C86B215
:108130000320064908700020B30000900846294635
:108140004268044801F00CFFF8BD000050290020EF
:10815000A82200203023002010B507494888091DB7
:1081600004F0D6F818B1FFF7D7FF044602E0FFF796
:1081700085FF0446204610BD5029002010B5144844
:108180000078082820D2DFE800F0041F1F0A10162C
:10819000171BFFF73FFF01200D49087015E000F0A5
:1081A00075F802200A4908700FE000F029F806204F
:1081B0000749087009E000BF07200549087004E07E
:1081C00001200349087000E000BF00BF10BD00009F
:1081D0005029002010B505200649087002200649E4
:1081E00088800846002301220168044801F096FDBA
:1081F00010BD000050290020A822002030230020BC
:10820000104908681049498801EB81010F4A02EBC7
:10821000810149680B4A11600B49498801EB8101D2
:108220000A4A02EB8101486006498988064A528859
:1082300002EB8202054B03EB820211810221014A0B
:1082400091807047A8220020502900202829002072
:1082500010B5062005490870498801EB8101044AE0
:1082600002EB8101486802F0B3FF10BD50290020E5
:108270002829002010B50720034908700020486015
:1082800002F0B6FF10BD000050290020054A5068DA
:108290004288D21C91B2044A92880A44024B9A80C6
:1082A0007047000050290020A822002070B586B039
:1082B0000446A5882088352835D0502828D0522853
:1082C00002D0542871D103E0284600F073FF6CE01F
:1082D00018223C496846FEF789F8ADF80250284656
:1082E00000F01AFCADF80400BDF8040000F036F907
:1082F0000022354801782846FEF78CFF00223348DB
:1083000001782846FEF786FF6846FFF7A5FC4CE09B
:10831000A01DFFF701F928B10121284600F0ACFFAC
:1083200005F06CF941E00026A58800222848017874
:108330002846FEF76FFFE088B0F5857F30D0E088F3
:1083400058B1E2882349244BC91AC908022343EAD9
:10835000014022A102F01AFA22E0608901280AD025
:1083600062891C491C4BC91AC908022343EA01400F
:1083700029A102F00BFAA08901280BD0A289154986
:10838000154BC91AC908022343EA014031A102F082
:10839000FDF905E0A07B08B1012000E000200646C1
:1083A0003146284604F0F4FE00BF00BF00BF0022A3
:1083B000374938480078FEF7EDFE00BF04F056FC60
:1083C00006B070BD18DD0200272200202622002002
:1083D0002822002058F0020050F00200556E657807
:1083E00070656374656420474154542073746174EC
:1083F0007573207768696C652067657474696E674A
:108400002043415220636861722076616C75653A41
:1084100020307825780000004D756C7469706C65AB
:1084200020282564292043415220636861726163DA
:1084300074657269737469637320666F756E642CFA
:10844000207573696E67207468652066697273743D
:108450002E000000556E6578706563746564204376
:1084600041522063686172616374657269737469F3
:10847000632076616C7565206C656E677468202872
:108480002564292C2073746F726520302E00000043
:108490003D6F02002522002010B50446207858B90F
:1084A000608800F087FE608804F0D0FB6088FFF7EA
:1084B00005F805F0A3F800E000BF00BF10BD000004
:1084C0007CB504462078082840D1607A00283DD148
:1084D000207A012814D0072802D0082834D12BE0B4
:1084E000A08800F049FA05464FF6FF70854206D095
:1084F0000121284600F0C0FE2846FEF7DFFF24E0F9
:10850000A0886A46012102F04DFF06469EB90198F7
:10851000007880B1A08800F02FFA05464FF6FF7072
:10852000854207D001220B4801782846FEF772FEEB
:1085300004F09CFB00BF08E007480068012802D156
:10854000054802F013FB00E000BF00BF05F056F83D
:108550007CBD000026220020202200201CB50446FD
:10856000044903C9CDE9000100226946204603F011
:10857000CFF81CBD40DD02002DE9FC47054628462A
:1085800000F0CAFA06460027B8464FF003094FF03C
:10859000010A4FF6FF7086420DD06A460821304628
:1085A00002F000FF044634B90198871DB0F804803A
:1085B000D0F8009000BF00BF4B46424639462846DF
:1085C000B1DF0446042C01D1112422E0082C01D192
:1085D00000241EE00B2C1CD14FF0000A09F0020011
:1085E00010B14FF0010914E017B9B8F1000F04D031
:1085F0000027B8464FF003090BE00A490A4A891AD6
:10860000C908012242EA01402A46084902F0BEF8A0
:1086100003240B2CD0D0BAF1000F00D10B2420463C
:10862000BDE8FC8760F0020050F00200A0E3020009
:108630002DE9FC5F8046404600F06EFA06464FF694
:10864000FF70864203D143F20200BDE8FC9F4FF069
:1086500001094FF0000A00BF4FF0000A4A46511CC2
:108660001FFA81F96B460821304602F0FDFE0446F0
:10867000002C31D1019D032028602A1DA91D4046F0
:108680002B68B2DF044634B932460821304602F086
:1086900073FF04461FE00C2C02D14FF0010A02E0E8
:1086A000052C00D100240821304602F055FF074672
:1086B00087B1384602F0D8FB83460C490C4A891A28
:1086C000C908012242EA01405B463246094902F0EC
:1086D00069F8032400BF02E0072C00D10C24BAF192
:1086E000000FB9D100BF2046AFE7000060F00200E4
:1086F00050F0020020E3020010B504460448008850
:108700004FF6FF71884201D004F0BCFA10BD0000A2
:108710002C220020FEB5044602A80190204600F05D
:10872000FBF906466A460121304602F03BFE05464B
:108730000DB10020FEBD01980078FBE72DE9F04166
:1087400005464FF6FF761648B3DF04468CB1204647
:1087500002F08AFB07461349134A891AC908012205
:1087600042EA01403A46114902F010F80320BDE800
:10877000F08100BF4FF6FF72094801882846AFDF3D
:10878000044643F20300844204D105480088401C9B
:108790000349088043F203008442EBD02046E6E719
:1087A0002E22002060F0020050F00200D4E202000D
:1087B00070B504460D46204600F01AF8A84201D9CB
:1087C000022070BDA0884FF6FF71884201D020883A
:1087D00008B90120F5E70020F3E7024613468B4273
:1087E00004D21868401C08B1012070470020FCE743
:1087F00001464A8801F10C0000EB8200704710B579
:1088000001F02EFE10BD3EB504460D462078022133
:10881000B1EB500F01D000203EBDB4F80100ADF81F
:108820000800E0788DF80A00A188ADF80010A07962
:108830008DF8020001AA69462846FEF771FA032264
:1088400001A902A8FDF7FDFD08B90120E4E7002019
:10885000E2E7000070B504460D46142C03DA20460A
:10886000FEF7F6FC10B943F2020070BD04EB840081
:10887000054901EB4000D0F802102960C188A980A9
:10888000007AA8710020F0E70C24002030B591B0E8
:1088900005462888102801D011B030BD2C22291D92
:1088A00006A8FDF7A3FD4FF6FF749DF81C000321F9
:1088B000B1EB500F35D002F0D5FE9DF81C004008FA
:1088C00020B1012803D0022828D114E000BF09E01C
:1088D000049800F1110107A8FEF7D2F910B1BDF814
:1088E000144006E003AA05A9072002F085FE00282F
:1088F000EED100BF13E008E00498411C07A8FFF781
:1089000082FF10B1BDF8144006E003AA05A90720B4
:1089100002F072FE0028EFD100BF00E000BF00BFF0
:1089200000BFBDF8180000EB8000124921F810408C
:10893000BDF8180000EB800001EB40000799C0F87B
:108940000210BDF82010C1809DF8221001724FF670
:10895000FF7084420CD0BDF81800ADF80200ADF8ED
:10896000044000208DF800006846FFF789F900BF39
:1089700000BF91E70C24002070B505464FF6FF704C
:10898000854200D170BD00240EE004EB840009494B
:1089900031F81000A84205D12046FEF759FC08B175
:1089A0002046EFE7601C84B2142CEEDB4FF6FF701C
:1089B000E8E700000C2400203EB505460C4602F016
:1089C00051FE0BE0BDF80800A04207D028460199EF
:1089D00000F00EF810B1BDF808003EBD6A4602A9CD
:1089E000072002F009FE0028ECD14FF6FF70F4E7F3
:1089F0002DE9F04704460D4604F1110605F1110773
:108A00001022691C601CFDF71CFD48B9601C00F0B9
:108A100046FA28B1681C00F042FA08B1012000E0D3
:108A20000020824639463046FEF72AF980463078E3
:108A30000221B1EB500F10D030780321B1EB500F71
:108A40000BD038780221B1EB500F06D038780321D3
:108A5000B1EB500F01D0012000E000208146B8F1B9
:108A6000000F02D0B9F1000F05D1BAF1000F05D007
:108A7000B9F1000F02D10120BDE8F0870020FBE72B
:108A80000246108808B101207047002105E0901CC3
:108A9000405C08B10120F7E7491C0829F7D3002002
:108AA000F2E770B505460C462846FFF7E9FF08B91E
:108AB000002070BD28882188884201D00020F8E776
:108AC0000822A11CA81CFDF7BCFC08B90120F0E796
:108AD0000020EEE7142804DA00EB8002014B23F8B3
:108AE000121070470C24002070B506463046FFF780
:108AF00043FF0446304602F061FC054645B9142C9C
:108B000006DA4FF6FF7004EB8401024A22F81100E6
:108B1000284670BD0C24002010B50446142C03DA3E
:108B20002046FEF795FB10B94FF6FF7010BD04EB21
:108B30008400024931F81000F8E700000C240020FE
:108B40003EB5044602F08EFD10E0019800F14601AA
:108B50002046FFF7A6FF30B9019800F12A01204610
:108B6000FFF79FFF10B1BDF808003EBD6A4602A99D
:108B7000072002F041FD0028E7D14FF6FF70F4E72F
:108B800070B504460D4609486060094800F073FE60
:108B900050B902F0C9F8064908741C238C22054913
:108BA0000548006800F099FD002070BDE0DE02007D
:108BB000082A00206C290020ECDE02002DE9F0419B
:108BC00006460C460F272EB100204249486001207E
:108BD000BDE8F081207930B101280AD0022835D0D3
:108BE00003286DD140E00120207102F001FB07460F
:108BF00067E04FF00008002519E005EB85003649D5
:108C000011F82000022810D1002005EB8501324A1E
:108C100002F821004FF0010805EB850102EB81010C
:108C2000486802F0D5FA074603E0681C85B2022DB9
:108C3000E3DB00BFB8F1000F07D101202549087020
:108C40000020486041F61D50C2E73AE00020207144
:108C5000022022498880084600230122016820481A
:108C600001F05CF807462CE0002020711B490868E1
:108C700002F0AEFA07461B4845881848D0F8008035
:108C800005EB8500144901EB80004068134908603A
:108C900005EB8500104901EB8000C0F804800F4807
:108CA000808805EB85010C4A02EB810108810220D6
:108CB0000A498880002005EB850102F8210000E0C8
:108CC00000BF00BF27B10020024948600E207FE7A7
:108CD00000207DE79422002028290020A8220020DF
:108CE0003023002050290020024600210CE001EB37
:108CF0008100074B33F82000904204D101EB810042
:108D000003EB80007047491C0029F0D00020F9E7F0
:108D1000642300202DE9FC5F83460E4691461F46E2
:108D2000DDE90C45002E01DA704200E03046824653
:108D30004FF0010803E09AFBF9FA08F10108CA456F
:108D4000F9DA474500D9B84634B1002E03DB05F007
:108D50000400042800D1641E05F0020000B167B1D0
:108D600005F0010048B944B104E0641E20215846D2
:108D7000FEF788FB0CB1A045F7D3002E05DA76424A
:108D80002D215846FEF77EFB07E005F0040004287D
:108D900003D12B215846FEF775FB05F0020002288F
:108DA0000DD105F0010050B94FB944B104E0641E83
:108DB00030215846FEF766FB0CB1A045F7D33B4681
:108DC0004A4631465846CDE9004504F0BBFBBDE8B4
:108DD000FC9F30B5024600201378C3F38003D3B163
:108DE000137803F00303012B02D0022B10D107E00C
:108DF0001388C3F383139B1C0C6823440B6008E0A7
:108E00000B680225146805EB945423440B6000E0C2
:108E100000BF00BF012030BD01460348007A08B101
:108E2000012070470020FCE7082A00202DE9F041CE
:108E30000446A08800EB020CB4F80480904501DDE4
:108E4000104600E0A088A8EB0005E088C618B4F83A
:108E50000680984501DD184600E0E088A8EB000791
:108E60004888B4F80080404504DB4888B4F80280A4
:108E7000404502DD0020BDE8F0818888A84202D389
:108E80008888604501D90020F5E7C888B84202D338
:108E9000C888B04201D90020EDE70120EBE7024687
:108EA000002104E0505C08B101207047491C1029E2
:108EB000F8D30020F9E7014601F0030008B90120CA
:108EC00070470020FCE70146086808B102680A60A4
:108ED0007047000010B501F0F1FF002001498870D3
:108EE00010BD0000F02600202DE9FE4F80460F4601
:108EF000924699460FB1002612E0684600F0B8FB92
:108F00006A460021404602F0F1F9009E2A480078A6
:108F100028B99DF8090010B90520BDE8FE8F00BFF3
:108F200052463146404603F0E0FF04460022214607
:108F30004046FEF7F1FF0D2C1CD005DCCCB1082C0F
:108F40001AD00B2C1BD118E0112C04D0A4F54050E2
:108F50000238A0B90FE03A46184801784046FEF7BB
:108F600059F95246164801784046FEF753F9002554
:108F700017E000BF00BF00BF00BF254611E020463C
:108F800001F072FF83460F490F4A891AC90801226E
:108F900042EA014043465A460C4901F003FC0325CE
:108FA00000BF00BFB9F1000F04D032462146404651
:108FB000FEF7EEFD2846B0E7642200206E22002076
:108FC0006D22002098F0020050F0020080E90200BB
:108FD00070B505460E46314628467EDF0446042C11
:108FE00000D11124204670BD70B504460D461646CA
:108FF00000BF0B4801782046FEF7F6F870B1204616
:1090000002F008F928B132462946204602F00CF950
:1090100004E0324629462046FEF766FC70BD00009B
:10902000542200202DE9F041044688460A48017880
:109030002046FEF7D9F80646084801782046FEF794
:10904000D3F807460123324639462046FFF74CFF46
:109050000546BDE8F08100006D2200206E22002050
:1090600070B505460C46002624B121462846FFF778
:10907000AFFF0646304670BD2DE9F0410646002799
:109080004748D0F8008078E016B13446E66947E0FA
:109090004448007800EB40014248001D00EBC10548
:1090A000001F0078401C3F49087008460078897806
:1090B000884202D100203B4908706C68287801285A
:1090C0001AD0022802D0032817D107E0686804F0FC
:1090D0003BF900B10127002020744EE007E0304941
:1090E0000868002101742E4AC169116000BF2C4834
:1090F00000680028F3D140E000E03EE000BF207CA3
:1091000000B13AE0A8686060E868A0602869E060A3
:109110006869A0612448007808B10020606000BF41
:10912000224960680968401A20F07F40204988423F
:1091300008D21E496068096804F098F8A1680844DC
:1091400020600FE019486168006804F08FF8054658
:10915000A068A84203D9A068401B206001E000205D
:10916000206000BF00206060A0600120207400200B
:10917000E061204604F0B4F800BF002E84D1094815
:109180000078084949788842F8D11FB90448006836
:10919000404502D00120BDE8F0810020FBE700003F
:1091A00080220020702700209322002084220020AB
:1091B000FFFF7F00F0B587B004460026182101A804
:1091C000FDF72DF9ADF806404FF6FF70844201D14E
:1091D00007B0F0BD2046FFF7CFF9054645B10B2D8E
:1091E0000FD0112D0BD0A5F540500238E0B91AE090
:1091F0000E208DF8040001A8FEF72EFD29E00126BF
:1092000027E00F208DF804001649174A891AC9086B
:10921000022242EA01402246144901F0B7FA01A8AD
:10922000FEF71AFD15E014E0284601F01DFE074682
:109230000C490D4A891AC908012242EA0140234615
:109240003A460B4901F0AEFA2946204603F07EFC6F
:1092500000BF00BF3246074801782046FDF7DAFF1D
:1092600000BFB5E758F0020050F0020054E20200DF
:1092700000E202002522002070B505460C46224679
:10928000024801782846FDF7C5FF70BD2422002062
:109290002DE9F04186B00446002600272046FFF75E
:1092A000C7F905464DB1112D0AD0862D0AD0A5F576
:1092B0004050023800281BD101E001272DE02CE0AE
:1092C00001262AE0182219496846FDF78FF8ADF803
:1092D00002401749174A891AC908022242EA014086
:1092E000224615A101F052FA6846FEF7B5FC14E0DB
:1092F000284601F0B9FD80460D490E4A891AC90871
:10930000012242EA01402346424619A101F04AFAED
:109310002946204603F01AFC00BF00BF3146204614
:10932000FFF7AAFF384606B0BDE8F081D4DC0200A2
:1093300058F0020050F00200466C617368206675B8
:109340006C6C2E20436F756C64206E6F7420737488
:109350006F7265206461746120666F7220636F6E46
:109360006E5F68616E646C653A20256400000000E1
:109370006773636D5F6C6F63616C5F64625F636191
:109380006368655F7570646174652829207265740F
:1093900075726E656420257320666F7220636F6E30
:1093A0006E5F68616E646C653A20256400000000A1
:1093B00070B54FF40041002001F074FA044600BF7C
:1093C000254625B100BF2846FDF73EFD00BF00BF82
:1093D00001F032F870BD00002DE9FF4100272E4852
:1093E00000F042FA2C48001F00F03EFA2B4840687B
:1093F00003902A4885680398284028490C3101EBDE
:10940000800800BF03A94046FFF7E3FC30B1039892
:10941000284022490C3101EB800800E000E0F1E730
:1094200000BF00240AE00398411C284003911B4917
:109430000C3151F820004DF82400641C022CF2D3AA
:10944000009800F0030001280DD0022814D1BDF8C7
:1094500006700421009801EB9050401E039901EB27
:109460009000039009E0BDF806700098C0F38310E7
:1094700003990844039000E000BF00BF0648001FA6
:1094800000F0EBF9064616B10449039848603846E7
:1094900004B0BDE8F0810000D82F0020C02B0020D0
:1094A000FFF786FF0649074A891AC908032242EADC
:1094B000014005A101F060F901E0FFF7A0F9FCE728
:1094C000E0F0020050F00200424C452054656D70FF
:1094D0006C617465206578616D706C653A4C6F677E
:1094E00020757365204A4C494E4B2D5254542061CF
:1094F00073206F7574707574207465726D696E6118
:109500006C0000002DE9FF4F87B0044691461E46CF
:10951000A2462546BAF806009AF805104843001FEF
:109520000690BAF806B0301DB0FBFBF00590301D78
:10953000B0FBFBF10BFB11000490D9F8000081197E
:109540000698814202D90698801B01E0D9F80000F4
:109550000746C9F8007003E02D680598401E059085
:1095600005980028F8D103900498ABEB0008B845A3
:1095700001D9384600E04046804623E00399089828
:1095800008440290281D049908440190149828B1B9
:109590004246DDE90110FCF729FF04E04246DDE91F
:1095A0000101FCF723FF002004902D68A7EB0807BA
:1095B000039840440390BB4501D9384600E0584623
:1095C000804600BF002FD9D10BB0BDE8F08F00005E
:1095D00070B503460C469CB101F090F90546002297
:1095E0000AE0084800EB820108881E68B04202D1F8
:1095F0001A60002070BD521CAA42F2D30520F9E780
:109600000020F7E70000000070B504460D4629462B
:10961000204600F0BDF880F0010600BF00BF00BF8B
:10962000BFF35F8F00BF00BF00BF304670BD70B595
:1096300004460D4600BF00BF00BFBFF35F8F00BFF1
:1096400000BF00BF2946204600F0E9F870BD70B5A4
:1096500004460D4600BF00BF00BFBFF35F8F00BFD1
:1096600000BF00BF2946204600F083F870BD00000F
:109670000EB5002100910191029104490968009101
:109680009DE80E0080E80E000EBD00006022002064
:1096900070B505460E464FF6FF70854201D1002099
:1096A00000E0681C84B208E02146304600F0B7F8BC
:1096B00008B1204670BD601C84B2FF2CF4DD4FF66B
:1096C000FF70F7E770B504462046FCF7EEFD05464F
:1096D0000DB1002070BD1120FCE710B5044609B99A
:1096E0000E2010BD92FBF3F003FB102008B10920FF
:1096F000F7E7216000206060A060A281E38100BFE5
:10970000EFE770B504460D4629462046FCF782FD7A
:1097100018B12A882168881870BD0020FCE770B550
:1097200005460C4620886188884204D12846FCF70B
:10973000B3FD012070BD0020FCE770B504460D4666
:1097400029462046FCF78BFD18B16A8821688818E5
:1097500070BD0020FCE770B505460C462088618886
:10976000884204D12846FCF771FD012070BD00201D
:10977000FCE770B505460C4604F01F0301229A4031
:10978000D143620905EB820000F087F8064670BD00
:1097900070B505460C4604F01F03012202FA03F1DE
:1097A000620905EB820000F099F804F01F02012124
:1097B0009140084008B1012070BD0020FCE72DE970
:1097C000F04106460D46002421E056F82400C0432F
:1097D00090FAA0F0B0FA80F814E008EB4417AF421A
:1097E00000D312E039463046FFF7D2FF10B93846B1
:1097F000BDE8F08156F82400C04390FAA0F0B0FA1A
:1098000080F800BFB8F1200FE7D300BF641C681ECA
:10981000012101EB5010A042D7D82846E8E710B547
:109820000246480952F8200001F01F040123A3401A
:10983000184008B1012010BD0020FCE770B50546B6
:109840000C4604F01F03012202FA03F1620905EB42
:10985000820000F059F8064670BD10B5044600219C
:10986000204600F030F810BD10B504460121204616
:1098700000F04AF810BD10B504460121204600F062
:109880002DF810BDF8B504460D466A462946204617
:10989000FCF757FD06460098F8BDF8B504460D469E
:1098A0006A4629462046FCF732FD06460098F8BD78
:1098B000F8B504460D466A4629462046FCF741FDA8
:1098C00006463046F8BDF8B504460D466A462946B8
:1098D0002046FCF71CFD06463046F8BDF8B50446A8
:1098E0000D466A4629462046FCF704FD06463046EA
:1098F000F8BDF8B504460D466A4629462046FCF7F1
:10990000EDFC06463046F8BDF8B504460D466A46FD
:1099100029462046FCF7EEFC06460098F8BDF8B54F
:1099200004460D466A4629462046FCF717FD0646C2
:109930000098F8BDF8B5044600260020009068465F
:10994000FDF7D2FA206800686168884215D920685E
:109950000068401E226810600178204600F033F84D
:109960000646207A21680978401AC5B22068007935
:10997000A84201DA2068057100BF9DF80000FDF7DC
:10998000B9FA3046F8BD0246D068081A138AB0FB0F
:10999000F3F0C0B27047F8B504460D462E460020DD
:1099A00000906846FDF7A0FA31462046FFF7EBFF2E
:1099B00021680A68511C2368196010709DF8000026
:1099C000FDF798FAF8BD0246138AD06801FB030040
:1099D000704710B5014600BF09B90E2010BD00BF89
:1099E000087A0B79C01AC2B2D1E90030186005E0DC
:1099F00008680368581C0C6820601A70101EA2F1D9
:109A00000103DAB2F4D10B68187100BFE6E730B594
:109A100002460B46D40802F00702012090401D5D6B
:109A2000284030BD30B50B46C20800F007009C5CF2
:109A3000012585402C439C5430BD01464FF08040A9
:109A4000405808B1012070470020FCE708B500220B
:109A50004FF080410A500958009100BF08BD000036
:109A60000149086070470000080300400122910787
:109A70000A50704710B500240C48007808B18524BE
:109A800011E000200949886048600861C860084802
:109A900001F002FA044601F047F908B901F0F2F9C1
:109AA000012002490870204610BD0000F026002069
:109AB000D175020008B5002000906846FDF714FA41
:109AC0000748C068401E0649C8600846C06808B913
:109AD000FFF700FA9DF80000FDF70CFA08BD000042
:109AE000F02600200FB438B50446059810B938BCEC
:109AF0005DF814FB0020009006A800906A462046FE
:109B0000059900F012F80020009000BFEFE770B553
:109B10000446A06800B970BDD4E90403A2682168B6
:109B200098470020A06000BFF5E72DE9FC5F824662
:109B30000D4614460DB9BDE8FC9F00BF2E786D1C84
:109B400006B9E1E0252E70D100274FF0010900BFD2
:109B50002E782B2E0CD02D2E02D0302E0CD103E0DF
:109B600047F001076D1C0AE047F002076D1C06E094
:109B700047F004076D1C02E04FF0000900BF00BF72
:109B8000B9F1000FE4D14FF0000800BF2A2E06D132
:109B90002168081D2060086880446D1C0DE02E7847
:109BA000302E01DB392E00DD07E06D1CA6F1300000
:109BB00008EB880100EB4108E8E700BF4FF0000B1D
:109BC0002E782E2E10D16D1C00BF2E78302E01DB8A
:109BD000392E00DD07E06D1CA6F130000BEB8B0188
:109BE00000EB410BF1E700BF2E7800BF6C2E01D0D7
:109BF000682E02D16D1C2E7800E000E0F6E700BF71
:109C0000692E21D008DC252E6DD0582E39D0632E38
:109C10000CD0642E6CD116E0702E4CD0732E3ED03A
:109C2000752E1FD0782E63D12AE065E02168081DCB
:109C30002060D1F8009009F0FF0001905046019992
:109C4000FDF720FC55E000BF2168081D2060D1F819
:109C500000905B460A2249465046CDE90087FFF74F
:109C600059F846E02168081D2060D1F800905B4655
:109C70000A2249465046CDE9008703F063FC38E0EC
:109C800000BF2168081D2060D1F800905B461022BB
:109C900049465046CDE9008703F054FC29E021688D
:109CA000081D2060086801903B46424650460199D5
:109CB00003F0A2FA1DE02168081D2060D1F8009091
:109CC00030215046FDF7DEFB78215046FDF7DAFBE8
:109CD000002008210B461022CDE9001049465046CD
:109CE00003F030FC05E025215046FDF7CBFB00E0FA
:109CF00000BF00BF6D1C03E031465046FDF7C2FBBC
:109D0000287800287FF41AAF00BF9AF80C0010B131
:109D10005046FFF7FCFE00BF0DE70000F8B5044613
:109D20000E4615461F4600BF7CB90E203849394AF9
:109D3000891AC9080122009042EA0140364B37A235
:109D400038A100F03FFD0E20F8BD00BF00BF206825
:109D500078B908202E492F4A891AC9080122009093
:109D600042EA01402C4B3AA22EA100F02BFD082024
:109D7000EAE700BF00BF7DB909202549254A891AB5
:109D8000C9080122009042EA0140234B33A225A1D9
:109D900000F018FD0920D7E700BF00BF314620467C
:109DA000FCF78FFF78B9102019491A4A891AC90897
:109DB0000122009042EA0140174B29A219A100F0AC
:109DC00001FD1020C0E700BF00BF6068006800FB15
:109DD00005F231462046FCF77EFF78B910200C4989
:109DE0000C4A891AC9080122009042EA01400A4B34
:109DF000254A0CA100F0E6FC1020A5E700BF206872
:109E00003B462A463146D0F810C02046E0479BE743
:109E1000D0F0020050F00200CBDE0200705F6673EB
:109E200000000000257320636865636B206661692C
:109E30006C656420696E2025732829207769746811
:109E40002076616C756520307825782E0000000042
:109E5000705F66732D3E705F617069006C656E00A7
:109E6000616464725F69735F706167655F616C698B
:109E7000676E656428705F66732C20706167655F2C
:109E8000616464722900000044EA02000246012075
:109E9000044B58741846007A08B901207047002016
:109EA000FCE70000082A002070B504460D46012C8E
:109EB00001D0032C0BD1002005494874012C01D19D
:109EC000012000E000200249087402F0A7F870BDEC
:109ED000082A002070B504460E46022C02D0032C3E
:109EE00000D070BD1C48007A20B1012803D00228A0
:109EF00026D101E0F5E723E00025022C02D0032C57
:109F00000CD105E01548006801F0BCF8054606E0F4
:109F10001248006801F0A4F8054600E000BF00BF49
:109F20006DB100200C490872022C00D100E00D2018
:109F300001460A480068FDF7F7FD01F0D7FF00BFB2
:109F400000BF0548407C10B902F068F801E000F05D
:109F5000F1FE00BFC5E70000082A0020C42200204F
:109F60002DE9F84304460F4616461D46DDF82080CD
:109F700000BF84B90E205949594A891AC9080122DB
:109F8000009042EA0140574B57A259A100F01AFC39
:109F90000E20BDE8F88300BF00BF7EB90E204F49F8
:109FA0004F4A891AC9080122009042EA01404D4BEC
:109FB0005AA24FA100F006FC0E20EAE700BF00BF46
:109FC000206878B908204549454A891AC9080122FC
:109FD000009042EA0140434B52A245A100F0F2FB3F
:109FE0000820D6E700BF00BF7DB909203B493C4AA5
:109FF000891AC9080122009042EA0140394B4CA25B
:10A000003BA100F0DFFB0920C3E700BF00BF606891
:10A010004068B5FBF0F100FB115078B109202F49E1
:10A020002F4A891AC9080122009042EA01402D4BAB
:10A0300040A22FA100F0C6FB0920AAE700BF00BF85
:10A040003846FCF736FE78B910202449244A891A8C
:10A05000C9080122009042EA0140224B40A224A1FB
:10A0600000F0B0FB102094E700BF00BF3046FCF7C3
:10A0700020FE78B910201949194A891AC908012205
:10A08000009042EA0140174B3BA219A100F09AFB55
:10A0900010207EE700BF00BF2A4639462046FCF765
:10A0A0001AFE78B910200D490D4A891AC9080122F3
:10A0B000009042EA01400B4B38A20DA100F082FB58
:10A0C000102066E700BFCDF8008020682B4632469E
:10A0D0003946D0F80CC02046E0475AE7D0F00200DD
:10A0E00050F00200B8DE0200705F667300000000EE
:10A0F000257320636865636B206661696C65642005
:10A10000696E202573282920776974682076616C30
:10A11000756520307825782E00000000705F73721E
:10A1200063000000705F66732D3E705F61706900B0
:10A130006C656E0021286C656E202520705F66734B
:10A140002D3E705F666C6173685F696E666F2D3E51
:10A1500070726F6772616D5F756E697429000000BF
:10A16000616464725F69735F616C69676E656433B3
:10A170003228646573742900616464725F69735F77
:10A18000616C69676E65643332282875696E743353
:10A19000325F7429705F73726329000061646472B6
:10A1A0005F69735F77697468696E5F626F756E640B
:10A1B0007328705F66732C20646573742C206C6543
:10A1C0006E29000073B50D46684600F019F8044684
:10A1D00004F5E060009950F8210020F4403104F5C6
:10A1E000E060009A40F82210009950F8210040EAFF
:10A1F000054104F5E060009A40F822107CBD0000A3
:10A2000001460868202802D24FF0A0407047087825
:10A2100000F01F0008600148F8E70000000300504C
:10A220003CB50B46084D30CDCDE90045014606E072
:10A230005DF82140D4F810551560121D491CC41852
:10A240008C42F5D83CBD00000CDE020001460148FE
:10A25000084470470060004038B504462046FFF7C8
:10A26000F5FF002101602046FFF7F0FF0068009035
:10A2700000BF38BD10B504462046FFF7E7FF006871
:10A28000012800D110BD0020FCE7000070B5044695
:10A290000E46FCF751FF0546681C08B9284670BDFC
:10A2A000E8B2E168087100BF0C48D0F8100430B97A
:10A2B0000A48C0F810440020E16808600BE0074835
:10A2C000D0F81004C0680068E16808600348D0F85E
:10A2D0001004C06804602846E1E70000C02B00209D
:10A2E000704710B5FCF780FA10BD704738B50446CA
:10A2F0000D4604484023044A29460090204600F0B9
:10A3000005F838BDC9CB0200282A00202DE9F04FFE
:10A3100093B082460E4617469846DDF87090304658
:10A3200000F0E5FB18210DA8FCF779F80D97CDF8A2
:10A330003880CDF8489000252B46082207A93046E2
:10A3400000F0F2FB082509980A90BDF82000ADF84E
:10A350002C00BDF82200ADF82E0000208DF8310051
:10A36000079800F0030001281BD107984FEA902BB3
:10A370000798C0F3C2008DF830000798C0F383142B
:10A38000A2002B4601A9304600F0CEFB05EB840568
:10A390000DA80AAB224601A90090584600F0E6FA43
:10A3A00027E0079800F00300022822D107984FEA1F
:10A3B000905B0798C0F3C2008DF8300000BFBBF17E
:10A3C000080F01D2584600E0082004462B462246DA
:10A3D00005A9304600F0A8FB2544ABEB040B0DAB00
:10A3E0000AAA214605A800F001FABBF1000FE6D148
:10A3F00000BF304600F089FB13B0BDE8F08F0000CD
:10A4000010B502460B4C04EBC203012906D0022909
:10A4100006D0032906D0042908D105E0022007E070
:10A42000042005E0187903E0587901E0002000BF1E
:10A4300000BF10BD50F0020010B54FF0FF34FFF721
:10A4400050FF04210548FFF721FF044600BF01200B
:10A450000249C968487100BF10BD000040F0020009
:10A460002DE9F04F8BB0FDF71DF818B100200BB0AF
:10A47000BDE8F08F0020B749C1F8180400BF00BF45
:10A4800000BFBFF34F8F00BF00BF00BF084640684A
:10A490000A90084684680A9820400C3101EB800A33
:10A4A000002500260020069000BF0AA95046FEF7AE
:10A4B00090FCA8B1A748D0F8180488B9A54800684E
:10A4C0000A99884205D8A3480068A249486000203C
:10A4D000CDE70A9820409F490C3101EB800A00E04B
:10A4E00000E0E2E700BF00270BE00A98411C204093
:10A4F0000A9198490C3151F8200007A941F827002A
:10A500007F1C022FF1D3079800F0030002287CD1B2
:10A510000798800D059050210798B1EB905F02DD00
:10A520000798800D00E050208146079869F39F50FE
:10A53000079009F1080004900798C0F3C200069044
:10A540008548049900F076FA0546002D5BD0284630
:10A5500000F0CDFA3346082207A9284600F0F5FAA4
:10A5600008360A982040611C081A4FEA8008C14545
:10A5700035D9B8F1000F06D00A98204075490C3142
:10A5800001EB800001E073480C300390B8F1000F3C
:10A5900001D0404600E0484600F0FF0BB8F1000F44
:10A5A00002D06C480C3000E000200290B8F1000F9F
:10A5B00002D0A9EB080000E00020C0B201903346B1
:10A5C0005A462846039900F0C0FA5E44029828B122
:10A5D00033462846DDE9012100F0B7FA0CE00A987D
:10A5E00020405C490C3101EB800B33464A4659460A
:10A5F000284600F0AAFA00BF0598C01C0A9901EB92
:10A6000090000A9000BF44E0FFE7079800F00300C5
:10A6100001283ED10798C0F38310062803DA079873
:10A62000C0F3831000E00620079960F389110791B9
:10A630000798C0F3831000F102080798C0F3C20026
:10A6400006904FEA8801444800F0F4F90546FDB150
:10A65000284600F04CFA3346082207A9284600F0A5
:10A6600074FA083600270EE00A98421C20400A922D
:10A67000384A0C3202EB800133460422284600F0AF
:10A6800064FA361D7F1C0798C0F38310B842EBD8DC
:10A6900000BFE5B32F48D0F81084D0F8180418B1E3
:10A6A000284600F032FA31E019E04FF0000900BF0F
:10A6B000D8F80C004079012800D18146B9F1000F8B
:10A6C00008D000BFD8F800002946026840469047ED
:10A6D00000BF00BFD8F80C00D0F8008000BFB8F170
:10A6E000000FE2D1284600F010FA0020059005A8DE
:10A6F000FCF7FAFB1748D0F8180410B915490A9866
:10A7000048609DF81400FCF7F5FB00BF1DE0FFE773
:10A710001048D0F810840AE0C146D9F800008168DA
:10A720004846884700BFD8F80C00D0F80080B8F140
:10A73000000FF1D109490A4A891AC908022242EADE
:10A74000014008A100F018F800BFFCF7ABFE80F054
:10A7500001008CE6C02B002000F10200E0F00200B6
:10A7600050F002004261636B656E647320666C7525
:10A77000736865640000000070B504460D46002350
:10A780001A462946204602F0CBFC70BDF8B50546B6
:10A790000E461446009401236A463146284602F0CC
:10A7A000BFFCF8BD2DE9FC4106460F4614461D4688
:10A7B0000094019502236A463946304602F0B0FC07
:10A7C000BDE8FC812DE9FE4306460F4614461D46B2
:10A7D000DDF8288000940195CDF8088003236A46AF
:10A7E0003946304602F09CFCBDE8FE832DE9F05F5F
:10A7F00007460E4690461D46082E01D9BDE8F09F3B
:10A8000095F80C90002028732946404601F0F8FA8C
:10A8100000240CE0B44205D23A5D1CA12846FFF7A3
:10A8200061F903E01BA12846FFF75CF9641C082CC2
:10A83000F0D319A12846FFF755F900241AE0B442D5
:10A8400013D217F804A0FBF7CDFD006810F80A003A
:10A8500000F03E0008B1504600E02E2083465A46E4
:10A860000EA12846FFF73EF903E00DA12846FFF7A9
:10A8700039F9641C082CE2D301222946404601F034
:10A880009BFA85F80C9000BFB8E700002025303215
:10A8900078000000202020007C00000025630000DC
:10A8A000200000002DE9F04106460F4600BFFF20C2
:10A8B0000D498860002008604860C1F81804C1F89C
:10A8C000140481F82004094800F019F9044614B171
:10A8D0002046BDE8F081064800F053F905480649D6
:10A8E000401AC5080020F4E7C02B002000F1020048
:10A8F00068E0020000F1020050F002000248034943
:10A90000401AC0087047000000F1020050F0020039
:10A9100013B50C4621466846FEF75AFE28B904488E
:10A92000009A00EBC20108681CBD0020FCE7000093
:10A9300050F0020070B50C48D0F8104401200A49CC
:10A9400081F820040CE000BF0120E168487100BFDD
:10A950002546286841682846884700BFE0680468A3
:10A96000002CF0D170BD0000C02B00202DE9FF4766
:10A9700007460C46164698460C9D95F80C9000200C
:10A9800028732946404601F03BFA072E47D2DFE8FC
:10A9900006F004090F161F2A370039462846FFF72C
:10A9A000A1F83DE0394628462268FFF79BF837E0DA
:10A9B00039462846D4E90023FFF794F830E0A06830
:10A9C000009039462846D4E90023FFF78BF827E0AA
:10A9D000D4E90201CDE9000139462846D4E9002333
:10A9E000FFF780F81CE0D4E902122069CDE90012DB
:10A9F000029039462846D4E90023FFF773F80FE0A8
:10AA0000D4E90223D4E90410CDE90023CDE90210F2
:10AA100039462846D4E90023FFF764F800E000BF78
:10AA200000BF00222946404601F0C6F985F80C9087
:10AA3000BDE8FF872DE9F84F07468A46388AA0F11E
:10AA400004080AF104004044401EB0FBF8F0C0B214
:10AA500000903846FEF76EFF044614B90020BDE8AA
:10AA6000F88F0020207101216171A4F8068025462D
:10AA70000098A0F1010B2C462F604FF0000912E066
:10AA80003846FEF757FF064636B16079401C6071C4
:10AA90002E603760354604E0204600F008F80020BC
:10AAA000DDE709F10109D945EAD32046D7E72DE9C9
:10AAB000F05F0446274697F805802646A8F1010B6B
:10AAC000002501E036686D1C5D45FBD3D6F800A07B
:10AAD0002646002507E0D6F8009031465046FEF79E
:10AAE0005AFF4E466D1C4545F5D3BDE8F09F70B545
:10AAF000044625460121281DFEF7C4FE70BD10B591
:10AB000004462046FEF765FF10BDF8B5044626460C
:10AB10000121301DFEF703FF00906D46287810B923
:10AB20002046FFF7C4FFF8BD2DE9FC4105460E465F
:10AB300014461F46019401203B4601AA314600906D
:10AB40002846FEF7DFFCBDE8FC812DE9FC41054607
:10AB50000E4614461F46019400203B4601AA31468A
:10AB600000902846FEF7CEFCBDE8FC8100BF00BF88
:10AB700000BFBFF35F8F00BF00BF00BF00210160B7
:10AB8000704700218268916082681161826851611A
:10AB90008268D160826851608268116070470000ED
:10ABA0002DE9F04192B080461748007810B912B0F4
:10ABB000BDE8F0811CE03420049004A905A861DF01
:10ABC000044604B115E005AD104901A800F0F3F802
:10ABD00009E000BF03980646376828467168B84701
:10ABE00001A800F009F900BF03980028F1D100BFC7
:10ABF000E1E700BF052C04D000BF2046FCF724F994
:10AC000000BF00BFD3E700002B230020ECE00200D0
:10AC100038B51648007808B9082038BD0120144915
:10AC2000087001F0A3FD112801D10020F5E70220F2
:10AC300001F0BAFD002000906846FCF755F911DFDD
:10AC400004460020094908709DF80000FCF752F9FD
:10AC50000CB12046E1E700200549087002F0E8F950
:10AC6000032001F0A1FD0020D7E7000028230020E9
:10AC70002A2300201CB51B48007808B108201CBD01
:10AC8000012019490870002001F070FD112801D140
:10AC90000020F4E7002001F087FD144800680190CF
:10ACA000002000906846FCF71FF9114901A810DF49
:10ACB00004460CB9012000E000200A4908709DF804
:10ACC0000000FCF717F90CB12046D8E70020064930
:10ACD00008700849087002F0E1F9012001F064FDF4
:10ACE0000020CCE7282300202A230020C8E002000F
:10ACF0008D6D0200292300203EB50A49684600F008
:10AD00005AF809E0684600F053F804462568606880
:10AD1000A847684600F070F8684600F049F8002837
:10AD2000F0D13EBDBCE00200014800787047000051
:10AD30002823002010B50748007808B9082010BD66
:10AD40000548007810B1FFF763FFF8E7FFF792FFBF
:10AD5000F5E700002A230020282300202DE9FF41E9
:10AD6000074618E003A84BDF044604B114E00F497E
:10AD7000684600F020F809E000BF029805462E68FA
:10AD800069680398B047684600F036F800BF02983B
:10AD90000028F1D100BFE5E700BF052C04D000BFBB
:10ADA0002046FCF751F800BFBDE8FF810CE102002E
:10ADB00001468868704770B504460D4625602868CE
:10ADC0006060204600F001F870BD14E0D0E9002179
:10ADD0005268914202D10021816070474168096840
:10ADE00042685268914203D0416809688160F4E783
:10ADF000416808314160E9E710B50446A06800B930
:10AE000010BD2168A06889680844A060D4E90110D9
:10AE10004968884205D16068083060602046FFF7C5
:10AE2000D4FF00BFECE7000070B502460D4B03F500
:10AE3000947413E0E61AF01000EBD076761003EB72
:10AE4000C6010D68954201D90C4606E0954202D232
:10AE500001F1080301E0486870BD00BFA342E9D3D7
:10AE60000020F9E724DF020030B504462046FFF752
:10AE7000DBFF05460DB9024830BD2846FCE700005F
:10AE800010DF020010B500F035F80120014908601C
:10AE900000BF10BD1805004001460020064A127987
:10AEA0000AB1852006E0044A11600122024B1A71A2
:10AEB00000225A71704700007022002010B50C204B
:10AEC000FEF7D4FD00BF00BF03480068C0F3004098
:10AED0000028F8D110BD00001804004070B50446E9
:10AEE00004B970BD024EA5012846B04700BFF8E77F
:10AEF00051DE0200F0B5062300200146C41700EB26
:10AF0000D4646411A40004F1E024D4F800410246A2
:10AF1000C51700EBD5656D11A0EB45160125B540B1
:10AF20002C400CB1012400E0002444BB00221C464C
:10AF300010462146002807DA4D072F0E104D00F06D
:10AF40000F06361FAF5503E04D072E0E0D4D2E5444
:10AF500000BF00BF002000BF012181400A4A440910
:10AF600042F8241000BF00BF012181404209920035
:10AF700002F1E022C2F8001100BF00BF00BFF0BD27
:10AF800018ED00E000E400E080E200E070B5054666
:10AF9000AE883046FDF7A8FE044674B14FF6FF7345
:10AFA00040F2F31205F1080104F10A00FDF73EFF3B
:10AFB000607221463046FCF785FB70BD2DE9F041FB
:10AFC0000546EF7BAE88012F01D0BDE8F0814FF63A
:10AFD000FF70FDF789FE04461CB9042001F084FDD2
:10AFE000F3E700BF2680002020720E480168C4F8F5
:10AFF0000A104068C4F80E0000BF4FF6FF7340F21D
:10B00000F31205F1100104F10A00FDF70FFF607261
:10B010000548C08918B921463046FCF753FB00BFEC
:10B02000D3E7000010220020782300202DE9F04112
:10B030000646B7883846FDF757FE05466DB1686885
:10B04000FBF73AFF044614B1204601F04DFD00BF66
:10B050004FF6FF70288000BF00BFBDE8F081000000
:10B0600001460748C068401C054AD0601046C068C9
:10B07000082803D90020D060012070470020FCE799
:10B08000082A002001460020154AD060087910B136
:10B09000012821D116E0D1E90530181AB0F5805FFA
:10B0A00003D2D1E90530181A01E04FF4805002466E
:10B0B000886983188B61D1E90503834201D101209E
:10B0C00070470AE00869401C0861D1E90420824207
:10B0D00001D10120F4E700E000BF00BF0020EFE74E
:10B0E000082A00202DE9F0410446A51D28881249B0
:10B0F000C98988421DD1688902281AD1B4F8048010
:10B100004046FDF7F1FD064696B105F10C00FCF74F
:10B110003DF920B131464046FCF7D4FA08E07068AA
:10B12000FBF7CAFE074617B1384601F0DDFC00BF49
:10B1300000BFBDE8F08100007823002030B5024652
:10B140000A23002015E000EB80040C4D05EB84047D
:10B1500064688C420BD200EB800405EB84046468C5
:10B1600004F580548C4202D90023108003E0441C73
:10B17000A0B20228E7DB00BF184630BD2829002016
:10B18000024602EB82000A4B03EB80000089084470
:10B1900081B202EB820003EB80004089084481B257
:10B1A000B1F5806F01DA012070470020FCE7000054
:10B1B000282900208A7D022A04DD0389CA88D21C3E
:10B1C0001A4402814389CA88D21C9A1A4281704764
:10B1D00038B5044600200823034A2146009003485E
:10B1E000FEF7BEFE38BD000064DE02003023002002
:10B1F00008B50020009004480823044A0168044868
:10B20000FEF7AEFE08BD0000A82200205CDE0200B2
:10B210003023002010B50446024801782046FBF791
:10B22000E3FF10BD552200202DE9F04704460E46ED
:10B230001746002500BF184801782046FBF7D4FFC9
:10B2400008B1012000E00220804604F5807188B238
:10B25000072100F081F90546ADB1052D13D0284630
:10B26000FFF702FE81460D490D4A891AC9080122DD
:10B2700042EA014023464A460A49FFF793FA294623
:10B28000204601F08DFC3B46324641462046FCF705
:10B2900043FABDE8F08700005622002090F002003B
:10B2A00050F00200F4E6020030B587B004460D46C7
:10B2B00002208DF804002088ADF806006079C0F304
:10B2C000800008B1012000E002208DF80C008DF80C
:10B2D0000D5001A8FCF7F8FC07B030BD70B504466E
:10B2E0000D460021204601F075FE70BD70B586B098
:10B2F00004460D46164605208DF80000ADF80240C4
:10B300002046FDF709FCADF8040002950396684657
:10B31000FCF7EEFC06B070BD70B50546002405E0F4
:10B32000044850F8241028468847641C042CF7D39E
:10B3300070BD00006CDD02002DE9F04105460126DC
:10B340000027E86802F028FB04462878082804D083
:10B35000092809D0132818D115E0687A18B914B152
:10B36000204602F04BFB11E0687A58B954B1002036
:10B370006060A07A20F00200801CA07201200849C1
:10B380000870002602E0012700E000BF00BF16B1F0
:10B390002846FFF7C1FF384600F0C8FEBDE8F0813F
:10B3A0003D22002070B504460D4616460023324665
:10B3B0002946204600F05EF970BD00002DE9FC41F1
:10B3C00005460020019001A9284602F0CBFA064666
:10B3D00024E0B178284600F0BFF80446B4B1052C4B
:10B3E00014D02046FFF740FD0746B0781A491B4AA3
:10B3F000891AC9080122009042EA01402B463A46C8
:10B400001749FFF7DFF90320BDE8FC810198401CD4
:10B41000019001A9284602F0A5FA0646002ED8D1CF
:10B42000284600F0D9F904460CB1072C01D120467A
:10B43000EAE72046FFF718FD07460749074A891A39
:10B44000C908012242EA01403B462A460549FFF766
:10B45000A9F90320D8E7000078F0020050F00200BC
:10B4600030E5020088E502002DE9F84380460D46EC
:10B4700014461E4600BF16B90E20BDE8F88300BF73
:10B4800000BF072D03D0082D01D00720F5E700BF2E
:10B490000CB1042C01D90720EFE74FF00009294631
:10B4A000404602F039FA0090009840B92A464146D9
:10B4B000684602F01FFA009838B91120DDE70098BD
:10B4C000007AA04201D00F20D7E70098407AFF28E9
:10B4D00010D121461C4800F0AEFA0099487200983D
:10B4E000407AFF2804D1009802F075FA1120C4E7D1
:10B4F0004FF0010900990C720098417A124800F04F
:10B50000CBFA07466FB900994A7A1049104BC91A0D
:10B51000C908012343EA01400E49FFF737F9032028
:10B52000ABE7A3B23A462946304600F001FAB9F13A
:10B53000000F07D0082D05D130880621C1EB80000F
:10B5400071688880002098E7E424002078F00200E9
:10B5500050F00200BCE4020070B505460E463146CC
:10B56000284602F0D9F904460CB9052070BD2046E2
:10B5700002F044FA0020F9E72DE9F04107460D46B4
:10B58000164600BF072D04D0082D02D00720BDE8C5
:10B59000F08100BF304600F02EF908B90720F6E729
:10B5A0002946384602F0B8F904460CB90520EEE702
:10B5B0002680A570204602F0B3F8E8E770B505468E
:10B5C0004FF6FF706880002405E0044850F824100E
:10B5D00028468847641C002CF7D070BD50DD02005F
:10B5E00010B50446204600F0DFF910BD10B5044642
:10B5F000204600F0E3F910BD2DE9F04186B0064683
:10B600000F46144600BF304600F07AF918B9012001
:10B6100006B0BDE8F08100BF304600F084F98046F6
:10B620000F4A03A94046FCF7FCFB08B10020EFE7F6
:10B6300001A903A8FCF712FC05460DB10020E7E7BD
:10B64000A6700198408820800298606001998888DF
:10B65000FCF75CFC388003A8FCF7A8FB0120D7E7C7
:10B660003422002002480021016041607047000040
:10B67000342200202DE9F04786B080460F4614465C
:10B680001D4600BFB8F1FF0F03DD072006B0BDE87F
:10B69000F08700BF00BF384600F032F908B9072034
:10B6A000F4E700BF03AA3946404600F009F9064610
:10B6B0000EB10520EAE701A903A8FCF7CFFB064677
:10B6C0000EB10520E2E7A77001984088208015B9E7
:10B6D0000298606016E020884FEA800A2988208856
:10B6E000B1EB800F01D2288801E0208880008146DC
:10B6F00002994A466068FAF779FED14501D20C20DA
:10B70000C4E700BF03A8FCF751FB0020BEE7000020
:10B71000F0B587B006460C46174600BFFF2E02DD87
:10B72000072007B0F0BD00BF00BFA07800F0E8F828
:10B7300008B90720F5E700BF304600F077F9ADF80B
:10B740001000A07800F0EFF8ADF8120060680590E6
:10B7500021880691A17801AA304600F0B1F805468B
:10B76000052D05D104A901A8FCF7ABFB054604E0B3
:10B7700004A901A8FCF798FB054635B1072D0ED0AA
:10B78000082D0AD00E2D0CD106E01FB1394601A8B4
:10B79000FCF75BFB0020C4E700BF1120C1E7862057
:10B7A000BFE70749074A891AC908012242EA01404E
:10B7B00033462A460449FEF7F5FF0320B1E70000AF
:10B7C00070F0020050F0020018E4020010B54FF6CD
:10B7D000FF7000F0BBF810BD10B5044600BFFF2C91
:10B7E00001DD072010BD00BF204600F0B9F800F0D1
:10B7F00017F80020F6E710B50446204600F0FAF8E6
:10B8000010BD2DE9F04105460E4617461C46A3B271
:10B810003A463146284600F08BF8BDE8F08100003A
:10B82000F0B585B0002022490870009001904FF6D5
:10B83000FF7000F0B9F8054606E0284600F0A6F8CB
:10B84000284600F0B1F805464FF6FF70854209D052
:10B85000284600F0EBF807466A4602A9FCF7EBFA27
:10B860000A28EAD04FF6FF7085421FD0284600F024
:10B87000DDF806463046FCF777FA0446082C03D17B
:10B8800001200B49087011E084B10A490A4A891A5B
:10B89000C908012242EA01402B4622460749FEF729
:10B8A00081FF01222146284601F064F905B0F0BD70
:10B8B0003122002070F0020050F0020070E402001B
:10B8C0002DE9FC4705460C461646204600F018F8C0
:10B8D000002000900190284600F0A8F880462046FD
:10B8E00000F021F881466B46324649464046FCF757
:10B8F0008DFA074617B10520BDE8FC870020FBE75D
:10B90000014607290BD0012909D0082907D00529AC
:10B9100005D0062903D0092901D0042901D101202D
:10B9200070470020FCE7014601F5404080B27047B7
:10B9300070B503EB83054FF6FF7606EA05148170B8
:10B940004260E51CAD10058070BD000010B50446D6
:10B9500002492046FBF7FEFD10BD000064260020D2
:10B9600070B504464FF6FF70844201D1002070BDCF
:10B9700005492046FBF7EEFD0546A54201D1012011
:10B98000F5E70020F3E700008426002010B5044608
:10B990000449204600F0C2FD02492031204600F053
:10B9A000BDFD10BD6426002010B5044602492046A6
:10B9B000FDF76EFE10BD00008426002010B5044681
:10B9C0000B492046FDF764FE04460AE0204600F0DD
:10B9D0001FF808B9204610BD05492046FDF758FE5E
:10B9E00004464FF6FF708442F0D12046F3E7000092
:10B9F0006426002010B50446FF2C04DC21460348D1
:10BA0000FDF70DFF10BD0020FCE7000064260020BC
:10BA100010B50446FF2C04DC21460348FDF7FFFE69
:10BA200010BD0020FCE7000084260020014601F53F
:10BA3000404080B270472DE9F041044688461CB171
:10BA4000206808B1606810B9FF20BDE8F081FF25CB
:10BA500000261CE031466068FDF7D6FD40B1FF2DA1
:10BA600000D13546701B401C40450ED12846ECE7FE
:10BA7000FF2D0AD02F4605E03946204600F024F875
:10BA8000781CC7B2B742F7DBFF25701CC6B2A068AE
:10BA9000B042DFD8FF20D8E770B504460D461CB190
:10BAA000206808B1606808B9002070BDFF2D09D07A
:10BAB00029466068FDF7BBFD20B1E168206805FB01
:10BAC0000100F2E70020F0E770B504460D4674B1BE
:10BAD000206860B1606850B1FF2D08D029466068C9
