:020000040002F8
:1060000060500020C1630200C9630200CB6302003C
:10601000CD630200CF630200D163020000000000E4
:10602000000000000000000000000000D363020038
:10603000D563020000000000D7630200D9630200AC
:106040004D670200DB630200256A0200DB63020089
:10605000DB630200DB630200D9640200DB63020041
:10606000DB630200DB630200DB630200DB63020030
:10607000DB630200DB630200DB630200DB63020020
:10608000DB630200A1670200DB630200DB63020046
:10609000D5670200DB630200DD670200DB630200FC
:1060A000DB630200DB630200DB630200DB630200F0
:1060B000DB630200DB630200000000000000000060
:1060C000DB630200DB630200DB630200DB630200D0
:1060D000DB630200DB630200DB630200DB630200C0
:1060E000DB630200DB630200DB63020000000000F0
:1060F00000000000DB63020000000000DB63020020
:10610000000000000000000000000000000000008F
:10611000000000000000000000000000000000007F
:10612000000000000000000000000000000000006F
:10613000000000000000000000000000000000005F
:10614000000000000000000000000000000000004F
:10615000000000000000000000000000000000003F
:10616000000000000000000000000000000000002F
:10617000000000000000000000000000000000001F
:10618000000000000000000000000000000000000F
:1061900000000000000000000000000000000000FF
:1061A00000000000000000000000000000000000EF
:1061B00000000000000000000000000000000000DF
:1061C00000000000000000000000000000000000CF
:1061D00000000000000000000000000000000000BF
:1061E00000000000000000000000000000000000AF
:1061F000000000000000000000000000000000009F
:10620000DFF80CD000F02AF9004800477195020031
:106210006050002030B450E8012F93B2C489234469
:106220008489A34228BF1B1B0489A34202BFBFF37A
:106230002F8F002007E0C3EA020340E80134002C5E
:10624000E9D14FF001000A6030BC704750E8012FDF
:10625000C2EA024240E801210029F7D1704730B478
:1062600050E8022F1FFAA2F3C488A34202BFBFF373
:106270002F8F00200DE0C48923448489A34228BFC6
:106280001B1BC2EA034340E80234002CE8D14FF064
:1062900001000A6030BC704750E8022FC2EA224277
:1062A00040E802210029F7D17047034653E8022F46
:1062B000D988B2EB324F4FF0000017BF92B241EADB
:1062C000014142EA014104E05A68B2EB324F08BF93
:1062D000012043E80212002AE8D1704730B4044696
:1062E00054E8000F0D4644E80053002BF8D1156028
:1062F00030BC704730B4044654E8000F40EA010552
:1063000044E80053002BF7D1156030BC704730B41F
:10631000044654E8000F00EA010544E80053002B4E
:10632000F7D1156030BC704730B4044654E8000F14
:1063300080EA010544E80053002BF7D1156030BC1A
:10634000704730B4044654E8000F00EB010544E800
:106350000053002BF7D1156030BC704730B40446B1
:1063600054E8000FA0EB010544E80053002BF7D1DF
:10637000156030BC704770B404464FF0000054E81C
:10638000006F0D68AE4207BF44E80023012044E8D7
:1063900000630E60002B1CBF0020F0E770BC70474C
:1063A00030B4044654E8000F88422CBF451A054615
:1063B00044E80053002BF5D1156030BC7047000055
:1063C0000648804706480047FEE7FEE7FEE7FEE78F
:1063D000FEE7FEE7FEE7FEE7FEE7FEE7F567020001
:1063E0000162020000487047ECEE020040EA01033F
:1063F0009B0703D009E008C9121F08C0042AFAD27B
:1064000003E011F8013B00F8013B521EF9D270473E
:10641000D2B201E000F8012B491EFBD270470022E6
:10642000F6E710B513460A4604461946FFF7F0FF93
:10643000204610BD421C10F8011B0029FBD1801A18
:10644000704730B504460020034600E05B1C9342D1
:1064500003D2E05CCD5C401BF8D030BD064C074D4C
:1064600006E0E06840F0010394E807009847103424
:10647000AC42F6D3FFF7C8FE74FD020094FD0200A3
:1064800070B58C1810F8015B15F0070301D110F8F6
:10649000013B2A1106D110F8012B03E010F8016B23
:1064A00001F8016B5B1EF9D12B0705D40023521EA6
:1064B0000DD401F8013BFAE710F8013BCB1A921C0E
:1064C00003E013F8015B01F8015B521EF9D5A1420C
:1064D000D8D3002070BD00002DE9F04F8DB000270B
:1064E00000200B900C904FF480700A90012600243D
:1064F00012E00A9804F022F840B100BF7E4800681C
:10650000304018B10A9804F00BF8374376000A9827
:10651000001D80B20A90641C082CEAD34FF4BE70B0
:1065200004F00CF850B14FF4BE7003F0F9FF47F0DF
:1065300000470BAA0221002003F0D6FFF8B200B3F7
:10654000012600241BE006EA0700B0B100BF6B483B
:1065500050F82400C0F30520804600BF674850F87B
:106560002400C0F301408146204600F06DFF05463F
:1065700015B149464046A84700BF7600641C082C68
:10658000E1D307F0004000287DD04FF0000B002041
:1065900008900990002505E04FF0FF3006A941F86A
:1065A00025006D1C022DF7D300BF4FF0000B002417
:1065B00063E05348005D0590059820F0C00004900A
:1065C0004F480057401C002856D006A9049803F0F5
:1065D00084FA002850D005984FEA9019049800F0EA
:1065E0003BFF804600F030FF0390039810B9B9F1EB
:1065F000030F40D1B9F1030F03D108A9049803F0A8
:1066000077FA0498029002A803F024FF0190019801
:1066100000F5E060029950F82100C0F3014800BF86
:106620000BA9049803F059FA8246BAF1000F02D080
:10663000B8F1020F05D0BAF1000F1BD1B8F1030F6A
:1066400018D1B9F1030F0FD1B8F1020F01D1032016
:1066500000E0022002900299049803F0DDFE0BF1A5
:10666000010000F0FF0B00BF039818B14946DDE9B7
:106670000320904700BF00BF641C042C99D3BBF1DA
:10668000000F31D000E034E04FF0010804AA0221ED
:10669000002003F029FF00250BE004A850F8250096
:1066A0000BA951F82510884202D04FF0000802E0F3
:1066B0006D1C022DF1D300BFB8F1000F02D04FF0D6
:1066C000000B10E000250CE004A850F825000BA9F1
:1066D00041F8250008A850F8250006A941F8250032
:1066E0006D1C022DF0D300BFBBF1000F7FF45DAF36
:1066F00000BF0DB0BDE8F08F04630040106500409E
:106700008C27002000F01F0201219140024A43091A
:1067100042F823107047000080E200E000F01F0202
:10672000012191404209920002F1E022C2F80011D9
:106730007047000000F01F0201219140024A430906
:1067400042F823107047000000E200E010B54FF45B
:10675000807003F0D8F980B14FF4807003F0DCF959
:10676000012003F0E3F90D48407930B901200B49CD
:10677000487108460168002088474FF4827003F092
:10678000C2F950B14FF4827003F0C6F9022003F051
:10679000CDF9024801680120884710BD84220020FD
:1067A00010B500200949086000210948C0F84411CB
:1067B000C0F84811C0F84C1100200549C1F800018B
:1067C00002493C39086007F0D5FA10BD401101407C
:1067D0000010014010B507F0D7F910BD10B504F056
:1067E0000BFC10BD01480249086070470090D003BF
:1067F0005423002010B501F085F840B100207949FC
:1068000008604FF08041C1F810017749086001F03D
:1068100095F8002855D07548006875490860734898
:10682000001D0068091D0860704808300068091DD7
:1068300008606E480C300068091D08606B48103015
:106840000068091D0860694814300068091D086067
:1068500066481830006866492031086063481C307B
:106860000068091D0860614820300068091D086043
:106870005E4824300068091D08605C4828300068C4
:10688000091D086059482C300068091D08605748E8
:106890003030006856494031086054483430006850
:1068A000091D0860514838300068091D08604F48CC
:1068B0003C300068091D08604C4840300068091DE4
:1068C000086001F057F810B14A484B49086000F0E1
:1068D000D3FF10B1FB204949086000F0DBFF38B15D
:1068E000474801784748006861F30300454908605C
:1068F00000F0DEFF18B14FF400704349086000F06B
:10690000E5FF40B14148006800F0010018B16FF0A8
:1069100001003E4908603E48006840F470003C4970
:10692000086000BF00BF00BFBFF34F8F00BF00BFB4
:1069300000BF00BF00BF00BFBFF36F8F00BF00BF2D
:1069400000BF3448006800F0004030B93148001DF5
:10695000006800F00040002840D001202E49086067
:1069600000BF2E4800680028FBD01220294908608B
:1069700000BF2A4800680028FBD012212548001DCE
:10698000016000BF254800680028FBD00020224994
:10699000086000BF214800680028FBD000BF00BF8E
:1069A00000BF00BF00BFBFF34F8F00BF00BF00BFDD
:1069B00017487C38006800F4E06019490843001D5E
:1069C00013497C39086000BF00BF00BFBFF34F8F81
:1069D00000BF00BF00BF00BF00BFFDE7FFF702FF21
:1069E00010BD00000C0100403805004004040010F8
:1069F00020C50040488103008C56004018F5004037
:106A000058020010E40E004040960240000400408E
:106A100088ED00E00012001004E5014000E40140B0
:106A20000000FA0510B502490868804710BD000053
:106A30008C22002002E008C8121F08C1002AFAD1E7
:106A400070477047002001E001C1121F002AFBD1EE
:106A5000704700000146202908DA012088400A4AD0
:106A6000104008B1012070470020FCE7402909DAF6
:106A7000A1F12000012202FA00F008B10120F2E7A2
:106A80000020F0E70120EEE7FC06FFBD00BFEFF3BA
:106A90001081084672B6704770B505460C4605B1C0
:106AA0000CB9002070BD287840082178B0EB510F58
:106AB00001D00020F6E70622611C681CFFF7C1FC2C
:106AC00008B90120EEE70020ECE7014601F00300E1
:106AD00008B9012070470020FCE7024650680068B2
:106AE000401E084008B9012070470020FCE710B59F
:106AF0000346D868884206D88818401E1C69A04200
:106B000001D8012010BD0020FCE7000010B50446AC
:106B10006CB10848C068A04209D806480069A04284
:106B200005D3204602F02FFA08B1012010BD002045
:106B3000FCE700005823002070B58CB004460D46D9
:106B40001646002005E0C0F10F01615C0DF8001051
:106B5000401C1028F7D30D2104A8FFF760FC00208B
:106B600005E02A5CC0F10F0304A9CA54401C0328A5
:106B7000F7D3684646DF002005E0C0F10F0208A900
:106B8000895C3154401C0328F7D30CB070BD000061
:106B900010B5044602480178204600F0ADFA10BD59
:106BA0005722002072B600BF04F044F800BF00BFB7
:106BB00003F0D6FD0028FBD100BF00BF1D491E4ACF
:106BC000891AC908012242EA01401CA103F054FFBE
:106BD00000BF1D48006800F0010000B100BE00BF0A
:106BE0001449154A891AC908022242EA014017A12C
:106BF00003F042FF00BF00BF00BF00BF00BFBFF3F4
:106C00004F8F00BF00BF00BF0F48E438006800F49A
:106C1000E06012490843001D0B49E439086000BFD9
:106C200000BF00BFBFF34F8F00BF00BF00BF00BF5A
:106C300000BFFDE734FE0200A4FD0200466174615E
:106C40006C206572726F7200F0ED00E0537973741E
:106C5000656D207265736574000000000000FA0520
:106C60003EB50446002000900190029002946A46CE
:106C7000002144F20100FFF795FF3EBD2DE9F041F0
:106C800004460E461746254600BF1048807810B9C6
:106C90000820BDE8F08100BF0CB90820F9E7052EF7
:106CA00001D20720F5E7686908B90820F1E7687C98
:106CB000012801D1304600E0002080463B46424694
:106CC0003146284607F006F8E3E70000E8270020F1
:106CD00070B50446254600BF0848807808B90820EA
:106CE00070BD00BF0CB1686908B90820F8E7002042
:106CF00028740221284607F01CF8F1E7E827002055
:106D000010B50446204606F04DF910BD70B5044696
:106D100025460E488068B0B1ADB9FFF7B7FE06460C
:106D20000A4800680A490860084840684FF0E021B6
:106D3000C1F804010020054988601EB900BF62B691
:106D400000BF00BF00BF00BF70BD0000942A00203C
:106D500000E100E070B505460C462068401C28B1F3
:106D6000206803F0A7FB206803F03EFB6068401C2E
:106D700018B10021606803F01DFB2868A169C0F804
:106D8000241500BF617D227D286841EA0203C0F816
:106D90006C3500BFD4E90012286804F04EFA207D5B
:106DA000012814D1A068401C18B10021A06803F08C
:106DB00001FBE068401C28B1E06803F07BFBE06861
:106DC00003F012FBD4E90221286804F022FA70BD16
:106DD00070B505460C462068401C28B1206803F0B9
:106DE00076FB206803F00CFB6068401C18B10021A2
:106DF000606803F0ECFA2868A169C0F8241500BFA8
:106E0000617D227D286841EA0203C0F86C3500BF2D
:106E1000D4E90012286804F0E1F9207D012814D19A
:106E2000A068401C18B10021A06803F0D0FAE06807
:106E3000401C28B1E06803F04AFBE06803F0E0FA88
:106E4000D4E90221286804F0B1F970BD70B5044698
:106E50000D46204602F016FA70BD10B5044663795F
:106E600003F003022179208802F026F910BD10B545
:106E70000446207918B9204600F008F803E02046BF
:106E8000FFF7EBFF00BF00BF10BD00002DE9FE4380
:106E900007463E884FF000080022594801783046E6
:106EA00000F040F97879C0F3800028B90021384615
:106EB00004F0B6FDBDE8FE8306F5807188B201AB33
:106EC0000122072104F08CFE0546C5B1284604F0D6
:106ED0004BF981464B494C4A891AC908012242EABA
:106EE000014033464A46494903F0DCFD2946304615
:106EF00006F0DAFA0021384604F092FDDAE730466F
:106F000001F092FD04464FF6FF718C421BD10298AE
:106F100001F0DAFC04464FF6FF70844213D021469C
:106F2000304601F05FFD3046FFF732FE58B930467B
:106F300006F04CFA3046FFF72BFE20B90021384608
:106F400004F06EFDB6E74FF6FF7084421FD104F0E7
:106F5000F9FF04464FF6FF70844212D129492A4AAC
:106F6000891AC908012242EA014029A103F084FDDF
:106F70000421304606F098FA0021384604F050FD0E
:106F800098E72146304601F02DFD4FF0010806F547
:106F9000807188B22246072104F0AAFE054625B971
:106FA0000121384604F03CFD28E0862D07D130460B
:106FB00006F03EFA0121384604F032FD1EE0284674
:106FC00004F0D2F881460F490F4A891AC9080122F4
:106FD00042EA014033464A461A49009403F072FDE2
:106FE0002946304606F060FA0021384604F018FDC4
:106FF000B8F1000F02D0204601F0FEFC00BF59E7B7
:1070000054220020E4FD0200A4FD0200B0F40200BE
:10701000436F756C64206E6F7420616C6C6F63617C
:107020007465206E657720706565725F696420669F
:107030006F7220696E636F6D696E6720626F6E6438
:107040002E0000005CF50200002114E00C48D0F88E
:107050001024012308E000BFD0680079884201D1E4
:10706000002303E0D0680268002AF4D100BF0BB10E
:1070700008467047491C0A29E8DB4FF0FF30F8E763
:10708000382C002010B50446204600F069F820B1E5
:107090002146034802F029FC10BD0020FCE7000057
:1070A000CC23002070B504460D461646204607F056
:1070B0002BF908B9002070BD034951F8240032466D
:1070C000294600F0D7FEF6E7D423002070B5044629
:1070D0000025204600F044F850B12146054802F052
:1070E00004FC06460EB1022000E00120054600BF68
:1070F000284670BDC823002070B505460C462046C2
:1071000007F002F950B1284600F02AF830B10449DE
:1071100001EB8400294602F0E8FB70BD0020FCE78B
:10712000D423002070B505460C461646204607F0CD
:10713000EBF888B1284600F013F868B136B107497A
:1071400001EB8400294602F0DFFB05E0034901EB77
:107150008400294602F073FB70BD0000D423002098
:1071600010B50446142C01DB002010BD2146024856
:1071700002F0BBFBF9E70000C023002070B5044615
:107180000D462088102806D0112808D012280ED0CD
:10719000502810D107E0204604F0CCFA0CE020463D
:1071A00004F000FB08E0204604F058FB04E0204611
:1071B00004F0A8FA00E000BF00BF70BD2DE9F04167
:1071C00004468846A5882088102804D0112815D0A8
:1071D0001A2847D116E005F0A1FD284605F028FC45
:1071E00020B900BF0420FFF73BFD06E0E07B01284B
:1071F00003D029461D4802F087FB33E0284605F0FE
:10720000B1FD2FE0207A0121B1EB101F01DA01203E
:1072100000E000200646207A0221B1EB101F01DABF
:10722000012000E0002007468EB129460F48001DCE
:1072300002F06AFB2FB129460C48083002F064FBCB
:107240000FE029460948083002F0F9FA09E029461A
:107250000648001D02F0F3FA29460448083002F0FF
:10726000EEFA00BF00BFBDE8F0810000C823002097
:1072700070B504460D4600BF0748007800B970BDE0
:1072800000BF204601F08AFA204606F02BFA20467D
:1072900000F094FF00BFF2E74422002070B50446DE
:1072A000204606F0A3FF054605F0010070BD000072
:1072B0002DE9FC4704460D461646A71C4FF0010871
:1072C0000020019001A8FFF71BFD304800682860EE
:1072D0002E4800682D494968411A2C488068401C96
:1072E000A0EB010915E00121294802F031FB02F071
:1072F000DBF882465146264802F02AFB2348006804
:1073000022494968411A21488068401CA0EB0109C4
:1073100000BF4F45E7D8B8F1000F30D000210091F1
:1073200076B1009921F00301491C0091009921F0E8
:107330000401091D0091009964F3891100910DE089
:10734000009921F00301891C0091009921F00401AA
:10735000091D0091009964F39F5100910B49096840
:107360000A4A92681140094A0C3202EB81000099E6
:1073700001600649096839440C3A116000BF9DF864
:107380000400FFF7C3FC4046BDE8FC87382C002012
:107390005430002070B504460D46A168481CA0601A
:1073A00020684554D4E90110884202D3204602F0F7
:1073B0005AFC70BD0448406803490968884201D1FD
:1073C000012070470020FCE7382C00207CB50446E3
:1073D000204601F029FB054600236A46092104F0F6
:1073E00005FD052805D10122024801782046FFF756
:1073F00099FE7CBD282200207CB504460E46002064
:10740000019042F6A620ADF8040001208DF8060098
:107410000448006800906A4601A92046A0DF05469E
:107420007CBD0000DCE9020001468879012809D111
:107430000879012806D1488842F60212904201D10B
:10744000012070470020FCE70146024850F8210067
:10745000704700002C270020014601484056704725
:107460005C2700202DE9F04104460D464FF6FF76DB
:10747000304684420AD14FF48071284602F005FA62
:1074800086B2B6F5807F10D126460EE0FF2C0CDCCC
:107490002146284602F0E2F980F001070FB12046AC
:1074A00001E04FF6FF70064600BF3046BDE8F081B0
:1074B00070B505460DB9094C01E0084C083409E0E7
:1074C000204601F068FD064606B904E028467168CA
:1074D000884700BFF4E700BF70BD000020270020F0
:1074E00010B504462CB90120064948700020FFF76A
:1074F000DFFF012C04D1012002498870FFF7D8FF7B
:1075000010BD0000182700202DE9F04782461F48D3
:107510000068002836D01D480068056805F058FC52
:1075200007461B4804682146384606F021FBC61C66
:107530001848007808B905F051FCAE4201D228463F
:1075400000E03046044424F07F44204605F03AFC35
:1075500005F03EFC80463946404606F009FB00F146
:1075600003093946204606F003FB814509D905F099
:107570002FFC814605F026FC2F2003F091FE06F03B
:1075800045FC01E005F048FCBDE8F08794220020AE
:1075900098220020A622002033B58BB0054600209B
:1075A00000900C9878B100240BE021460CA802F062
:1075B0009CF928B1009A501C009001A820F81240B4
:1075C000641C142CF1D32C2269462846FEF70EFFCA
:1075D0000DB030BDF8B505460C46607A88B9207A02
:1075E00010B91048476801E00E4887682A463946B6
:1075F0006068FFF743FB064616B1304605F0F8FE1B
:107600000EE0002020720748406948B101208DF843
:107610000000ADF80250034841696846884700BF42
:10762000F8BD0000A0230020F0B587B004460D4649
:1076300017461E4618220B4901A8FEF7D7FEADF8E3
:1076400006408DF80C50ADF80E708DF810600022D9
:10765000054801782046FFF765FD01A800F0BCFA57
:1076600007B0F0BDA0EA02005422002010B586B099
:107670000446208804F08AF900BB2088FFF702FD49
:1076800030B92088012241F2060100F0B5F815E07A
:10769000208800220A490978FFF744FD02208DF86E
:1076A00000002088ADF8020000208DF808000021BD
:1076B0008DF80910684600F08FFA00BF06B010BDC3
:1076C000542200202DE9F04105460F460F4C0121C0
:1076D000204602F074F9064600BF00BF00BF00BF9D
:1076E000BFF35F8F00BF00BF00BF0EB9012000E0F5
:1076F000002040B1284601F033FE08B1BDE8F0811A
:10770000024803F0B3FB00BFF8E70000202200208E
:1077100070B506460D460EB1012070BD287920B126
:10772000012809D0022813D10FE002202871284631
:1077300005F0D8F904460DE0284600F055FB044654
:107740000A2C01D141F61D5404E041F61D5401E01C
:107750000F2400BF00BF2046DFE770B50446207944
:107760003D2802D141F23D0001E04FF4885005462A
:1077700020880022294601F09FFC70BD10B5002131
:10778000034802F01CF9044684F3100010BD000009
:1077900054300020014614480078144A1278904270
:1077A0001DD011480078401C0F4A10701046007818
:1077B000022801D1002010700D480B4A127850F8B1
:1077C000220008600B4A086812681044094A1060D9
:1077D0001046006820F07F401060012070470020B4
:1077E000086000BFFAE70000A4220020A5220020C4
:1077F0009C2200209822002070B506460C461546B3
:107800002B46224600213046FFF70EFF70BD0000D8
:107810002DE9F84305460E46174698466946104836
:10782000006801F0D4FF044614B90420BDE8F883D1
:107830001C212046FEF7F3FD012020712560C4F8CD
:10784000088008480068B6FBF0F0E06067616946B0
:107850000348006801F0E5FF05F07AF80020E5E74D
:107860002CEC020020EC020010B50446D4E9032100
:10787000501828DF10BD000005480068082805D111
:107880000348001D006808B9012070470020FCE78C
:107890003001001005480068082805D10348001D84
:1078A000006808B9012070470020FCE73001001093
:1078B00005480068082805D10348001D006808B97C
:1078C000012070470020FCE7300100100C480068E0
:1078D000082812D10A48001D006808B90120704725
:1078E0000748001D0068012800D1F8E70448001D82
:1078F0000068022801D10120F1E70120EFE7000034
:10790000300100100C480068082812D10A48001DF8
:10791000006808B9012070470748001D0068012869
:1079200000D1F8E70448001D0068022801D10120B9
:10793000F1E70120EFE70000300100100C4800687B
:10794000082812D10A48001D006808B901207047B4
:107950000748001D0068012800D1F8E70448001D11
:107960000068022801D10120F1E70120EFE70000C3
:107970003001001005480068082805D10348001DA3
:10798000006808B9012070470020FCE730010010B2
:107990000278072A38D2DFE802F037040712222BD8
:1079A000340000220A7030E001220A7003898B81C2
:1079B0008388CB81C2688A6000230B7425E0022291
:1079C0000A7003898B818388CB81C2688A60827D3B
:1079D000062A01D1012300E000230B7415E00322E5
:1079E0000A70C3888B810389CB81C2688A600CE0EE
:1079F00004220A70C3888B810023CB8100228A6015
:107A000003E005220A7000E000BF00BF70470000DD
:107A100070B50546002409E0064850F8240020B15E
:107A2000044850F8241028468847641C042CF3D3DB
:107A300070BD0000F428002030B587B004460D4624
:107A40002068806808B907B030BD182101A8FEF78A
:107A5000E6FC0295A0680690207910B1012815D1A6
:107A600009E001208DF8040020690390E06804908B
:107A7000606905900BE002208DF804000749E0687A
:107A80000968484303906069059000E000BF00BFAB
:107A90002068816801A8884700BFD4E720EC020075
:107AA000F0B587B005460C461646002C4BD0112C7D
:107AB00049D0082C47D0182101A8FEF7B0FCADF83A
:107AC0000650284600F0B0FFADF808000D2C1FD17D
:107AD0001E491F4A891AC908022242EA01402A4661
:107AE0001C4902F0D3FF03208DF804002EB130783A
:107AF00000F0010008B1012000E002208DF80C0028
:107B000000218DF8101041F20111ADF80E1016E0B1
:107B1000204603F029FB07460C490D4A891AC9087B
:107B2000012242EA01402B463A460B4902F0BAFFD5
:107B300007208DF80400039400218DF8101001A88F
:107B400000F05EF800BF07B0F0BD0000ECFD0200E1
:107B5000A4FD020018F6020028F7020010B5044642
:107B6000204600F04DF810BD70B50446608800F066
:107B70005BFFA080002505E0044850F82510204652
:107B800088476D1C002DF7D070BD00001822002022
:107B900070B50546002405E0044850F82410284636
:107BA0008847641C022CF7D370BD000020EA020055
:107BB00070B50546002405E0054850F82410284615
:107BC0008847641C034800788442F5DB70BD0000E0
:107BD000CC2600205222002070B50446608800F0B8
:107BE00023FFA080002505E0044850F8251020461A
:107BF00088476D1C002DF7D070BD000054EA0200CC
:107C000070B50546002405E0044850F824102846C5
:107C10008847641C002CF7D070BD0000E0EA020029
:107C2000F0B5034600241FE0124E306806689E42FD
:107C300003D90668F61A06601AE006689B1B0668F8
:107C40003444002606600B4E35680A4FC6693E6014
:107C5000C66846B10E1926F07F464660C668866043
:107C60001668C661156000BF024800680028DBD1B5
:107C700000BFF0BD9422002038B505460E480078BC
:107C800008B9022038BD4FF6FF70854201D10420AB
:107C9000F8E7684604F04CFD04460CB90820F1E70B
:107CA0000520207001202071E580684604F050FD19
:107CB00004F042FE0020E5E7A822002038B5044683
:107CC0000CB9052038BD6946204604F029FF00B3F1
:107CD000BDF8000000EB80000F4901EB8000C06898
:107CE000A8B1A07A98B1BDF8000000EB800001EBCC
:107CF0008000C068401EBDF8001001EB8101064AFB
:107D000002EB8101C8600020A072002502E0062578
:107D100000E00A252846D5E7A02900207FB51446B3
:107D20001D462B46224601A9684604F095FE04B084
:107D300070BD37B50C4615462B46224669460020D5
:107D400004F08AFE3EBD37B50C4615462B4622464A
:107D50000021684604F080FE3EBD024602B109B92A
:107D600005207047106808600020FAE7F8B504465F
:107D70000D4604B10DB90520F8BD6946204604F052
:107D8000CFFEA0B16668BDF8001001EB8101094A81
:107D900002EB810101F10C00012101F0D9FD2E60FF
:107DA00060680C3068600120A0720020E4E70A20BF
:107DB000E2E70000A029002070B504460D460CB98A
:107DC000052070BD032300222946204606F096FCBC
:107DD000F7E770B504460D460223002229462046E7
:107DE00006F08CFC70BD00003EB504460A4B6A46A6
:107DF0000021A01D04F030FE054635B9064A9188E1
:107E0000019804F007FF054603E0034800210160E4
:107E1000416028463EBD0000C42200200146A1F575
:107E2000404080B2704700002DE9F04106460C4604
:107E300015460027112C01D1012700E0002765B16C
:107E40003A460A4801783046FFF76CF900220848A4
:107E500001783046FFF766F905E03A4604480178B4
:107E60003046FFF75FF9BDE8F08100006F22002087
:107E70006C220020F7B50D4617460DB90020FEBD57
:107E80000026009868B1002409E02146684601F008
:107E90002CFD18B1A0B23946A847761C641C142CDE
:107EA000F3D33046EBE710B50446606804F09CFC61
:107EB00010BD000070B505460DB1012070BD184819
:107EC000007B18B100201649087301E000F0DEF8CD
:107ED0001348007808281DD2DFE800F01C04080CC5
:107EE000101C141800F03EF8044615E000F0BCF831
:107EF000044611E000F098F804460DE000F046F862
:107F0000044609E000F02CF9044605E000F03AF9D7
:107F1000044601E00F2400BF00BF2046CEE700006A
:107F2000C82900200D480089401C0C490881002008
:107F30004880087300BF0DE000EB8001084A12F88A
:107F4000211009B9012200E0002204490A310A5433
:107F5000411C88B20228EFDB70470000C8290020CE
:107F6000A029002010B5084800F036F840B90020DC
:107F70000549891E08704880486041F61D5010BDB3
:107F800000F072F8FBE70000CA29002070B50F4826
:107F9000458805EB85000E4901EB8000C06878B983
:107FA00004200A49087005EB8500094A02EB8000AD
:107FB000002301224168074801F05CFF044602E00B
:107FC00000F090F80446204670BD0000C82900204B
:107FD000A02900205823002010B5014600220020CF
:107FE00018E00F4B1B5C9BB100240D4B1C5400EBA5
:107FF00080030C4C04EB8303DB684BB900EB80037C
:1080000004EB83031B7C012B02D10880012203E0D7
:10801000431C98B20228E4DB00BF104610BD0000EC
:10802000D2290020A0290020F8B50C4844680C484B
:1080300000680B49898800EB81056088C01C86B206
:108040000320064908700020B30000900846294626
:108050004268044802F030F8F8BD0000C82900204A
:10806000BC2200205823002010B507494888091D6C
:1080700004F094FD18B1FFF7D7FF044602E0FFF7C4
:1080800085FF0446204610BDC829002010B51448BD
:108090000078082820D2DFE800F0041F1F0A10161D
:1080A000171BFFF73FFF01200D49087015E000F096
:1080B00075F802200A4908700FE000F029F8062040
:1080C0000749087009E000BF07200549087004E06F
:1080D00001200349087000E000BF00BF10BD000090
:1080E000C829002010B5052006490870022006495D
:1080F00088800846002301220168044801F0BAFE86
:1081000010BD0000C8290020BC22002058230020F8
:10811000104908681049498801EB81010F4A02EBB8
:10812000810149680B4A11600B49498801EB8101C3
:108130000A4A02EB8101486006498988064A52884A
:1081400002EB8202054B03EB820211810221014AFC
:1081500091807047BC220020C8290020A02900205F
:1081600010B5062005490870498801EB8101044AD1
:1081700002EB8101486803F0E7FB10BDC82900202D
:10818000A029002010B5072003490870002048608E
:1081900003F0EAFB10BD0000C8290020054A506822
:1081A0004288D21C91B2044A92880A44024B9A80B7
:1081B00070470000C8290020BC22002070B586B09E
:1081C0000446A5882088352835D0502828D0522844
:1081D00002D0542871D103E0284601F053F86CE036
:1081E00018223C496846FEF701F9ADF802502846CE
:1081F00000F01AFCADF80400BDF8040000F036F9F8
:108200000022354801782846FEF78CFF00223348CB
:1082100001782846FEF786FF6846FFF7A5FC4CE08C
:10822000A01DFFF701F928B10121284601F08CF8C3
:1082300006F050F841E00026A58800222848017881
:108240002846FEF76FFFE088B0F5857F30D0E088E4
:1082500058B1E2882349244BC91AC908022343EACA
:10826000014022A102F012FC22E0608901280AD01C
:1082700062891C491C4BC91AC908022343EA014000
:1082800029A102F003FCA08901280BD0A28915497D
:10829000154BC91AC908022343EA014031A102F073
:1082A000F5FB05E0A07B08B1012000E000200646B8
:1082B0003146284605F0EEFB00BF00BF00BF00229C
:1082C000374938480078FEF7EDFE00BF05F050F959
:1082D00006B070BDF0E9020027220020262200200F
:1082E00028220020ACFD0200A4FD0200556E657836
:1082F00070656374656420474154542073746174DD
:108300007573207768696C652067657474696E673A
:108310002043415220636861722076616C75653A32
:1083200020307825780000004D756C7469706C659C
:1083300020282564292043415220636861726163CB
:1083400074657269737469637320666F756E642CEB
:10835000207573696E67207468652066697273742E
:108360002E000000556E6578706563746564204367
:1083700041522063686172616374657269737469E4
:10838000632076616C7565206C656E677468202863
:108390002564292C2073746F726520302E00000034
:1083A0004D6E02002522002010B50446207858B9F1
:1083B000608800F067FF608805F0CAF86088FFF702
:1083C00005F805F087FF00E000BF00BF10BD00000A
:1083D0007CB504462078082840D1607A00283DD139
:1083E000207A012814D0072802D0082834D12BE0A5
:1083F000A08800F049FA05464FF6FF70854206D086
:108400000121284600F0A0FF2846FEF7DFFF24E008
:10841000A0886A46012103F081FB06469EB90198B7
:10842000007880B1A08800F02FFA05464FF6FF7063
:10843000854207D001220B4801782846FEF772FEDC
:1084400005F096F800BF08E007480068012802D14F
:10845000054802F00BFD00E000BF00BF05F03AFF49
:108460007CBD000026220020202200201CB50446EE
:10847000044903C9CDE9000100226946204603F002
:1084800003FD1CBD18EA02002DE9FC4705462846FD
:1084900000F0CAFA06460027B8464FF003094FF02D
:1084A000010A4FF6FF7086420DD06A460821304619
:1084B00003F034FB044634B90198871DB0F80480FA
:1084C000D0F8009000BF00BF4B46424639462846D0
:1084D000B1DF0446042C01D1112422E0082C01D183
:1084E00000241EE00B2C1CD14FF0000A09F0020002
:1084F00010B14FF0010914E017B9B8F1000F04D022
:108500000027B8464FF003090BE00A490A4A891AC6
:10851000C908012242EA01402A46084902F0B6FA97
:1085200003240B2CD0D0BAF1000F00D10B2420462D
:10853000BDE8FC87B4FD0200A4FD0200F0F00200DB
:108540002DE9FC5F8046404600F06EFA06464FF685
:10855000FF70864203D143F20200BDE8FC9F4FF05A
:1085600001094FF0000A00BF4FF0000A4A46511CB3
:108570001FFA81F96B460821304603F031FB0446AF
:10858000002C31D1019D032028602A1DA91D4046E1
:108590002B68B2DF044634B932460821304603F076
:1085A000A7FB04461FE00C2C02D14FF0010A02E0A9
:1085B000052C00D100240821304603F089FB074632
:1085C00087B1384602F0D0FD83460C490C4A891A1F
:1085D000C908012242EA01405B463246094902F0DD
:1085E00061FA032400BF02E0072C00D10C24BAF189
:1085F000000FB9D100BF2046AFE70000B4FD020074
:10860000A4FD020070F0020010B504460448008882
:108610004FF6FF71884201D004F0B6FF10BD000094
:108620002C220020FEB5044602A80190204600F04E
:10863000FBF906466A460121304603F06FFA05460B
:108640000DB10020FEBD01980078FBE72DE9F04157
:1086500005464FF6FF761648B3DF04468CB1204638
:1086600002F082FD07461349134A891AC9080122FC
:1086700042EA01403A46114902F008FA0320BDE8F7
:10868000F08100BF4FF6FF72094801882846AFDF2E
:10869000044643F20300844204D105480088401C8C
:1086A0000349088043F203008442EBD02046E6E70A
:1086B0002E220020B4FD0200A4FD020024F00200DE
:1086C00070B504460D46204600F01AF8A84201D9BC
:1086D000022070BDA0884FF6FF71884201D020882B
:1086E00008B90120F5E70020F3E7024613468B4264
:1086F00004D21868401C08B1012070470020FCE734
:1087000001464A8801F10C0000EB8200704710B569
:1087100002F026F810BD3EB504460D462078022131
:10872000B1EB500F01D000203EBDB4F80100ADF810
:108730000800E0788DF80A00A188ADF80010A07953
:108740008DF8020001AA69462846FEF7F5F90322D2
:1087500001A902A8FDF775FE08B90120E4E7002091
:10876000E2E7000070B504460D46142C03DA2046FB
:10877000FEF7F6FC10B943F2020070BD04EB840072
:10878000054901EB4000D0F802102960C188A9809A
:10879000007AA8710020F0E73424002030B591B0B1
:1087A00005462888102801D011B030BD2C22291D83
:1087B00006A8FDF71BFE4FF6FF749DF81C00032171
:1087C000B1EB500F35D003F009FB9DF81C004008B9
:1087D00020B1012803D0022828D114E000BF09E00D
:1087E000049800F1110107A8FEF756F910B1BDF881
:1087F000144006E003AA05A9072003F0B9FA0028EF
:10880000EED100BF13E008E00498411C07A8FFF771
:1088100082FF10B1BDF8144006E003AA05A90720A5
:1088200003F0A6FA0028EFD100BF00E000BF00BFB0
:1088300000BFBDF8180000EB8000124921F810407D
:10884000BDF8180000EB800001EB40000799C0F86C
:108850000210BDF82010C1809DF8221001724FF661
:10886000FF7084420CD0BDF81800ADF80200ADF8DE
:10887000044000208DF800006846FFF789F900BF2A
:1088800000BF91E73424002070B505464FF6FF7015
:10889000854200D170BD00240EE004EB840009493C
:1088A00031F81000A84205D12046FEF759FC08B166
:1088B0002046EFE7601C84B2142CEEDB4FF6FF700D
:1088C000E8E70000342400203EB505460C4603F0DE
:1088D00085FA0BE0BDF80800A04207D028460199B0
:1088E00000F00EF810B1BDF808003EBD6A4602A9BE
:1088F000072003F03DFA0028ECD14FF6FF70F4E7B3
:108900002DE9F04704460D4604F1110605F1110763
:108910001022691C601CFDF794FD48B9601C00F032
:1089200026FB28B1681C00F022FB08B1012000E002
:108930000020824639463046FEF7AEF88046307851
:108940000221B1EB500F10D030780321B1EB500F62
:108950000BD038780221B1EB500F06D038780321C4
:10896000B1EB500F01D0012000E000208146B8F1AA
:10897000000F02D0B9F1000F05D1BAF1000F05D0F8
:10898000B9F1000F02D10120BDE8F0870020FBE71C
:108990000246108808B101207047002105E0901CB4
:1089A000405C08B10120F7E7491C0829F7D30020F3
:1089B000F2E770B505460C462846FFF7E9FF08B90F
:1089C000002070BD28882188884201D00020F8E767
:1089D0000822A11CA81CFDF734FD08B90120F0E70E
:1089E0000020EEE7142804DA00EB8002014B23F8A4
:1089F000121070473424002070B506463046FFF749
:108A000043FF0446304603F095F8054645B9142C5B
:108A100006DA4FF6FF7004EB8401024A22F81100D7
:108A2000284670BD3424002010B50446142C03DA07
:108A30002046FEF795FB10B94FF6FF7010BD04EB12
:108A40008400024931F81000F8E7000034240020C7
:108A50003EB5044603F0C2F910E0019800F146016A
:108A60002046FFF7A6FF30B9019800F12A01204601
:108A7000FFF79FFF10B1BDF808003EBD6A4602A98E
:108A8000072003F075F90028E7D14FF6FF70F4E7EF
:108A900070B504460D4609486060094800F051FF72
:108AA00050B902F0C1FA064908741C238C2205490A
:108AB0000548006800F077FE002070BD20EC020041
:108AC000802A0020E42900202CEC02002DE9F0414E
:108AD00006460C460F272EB100204249486001206F
:108AE000BDE8F081207930B101280AD0022835D0C4
:108AF00003286DD140E00120207102F035FF0746C8
:108B000067E04FF00008002519E005EB85003649C5
:108B100011F82000022810D1002005EB8501324A0F
:108B200002F821004FF0010805EB850102EB8101FD
:108B3000486802F009FF074603E0681C85B2022D71
:108B4000E3DB00BFB8F1000F07D101202549087011
:108B50000020486041F61D50C2E73AE00020207135
:108B6000022022498880084600230122016820480B
:108B700001F080F907462CE0002020711B490868AD
:108B800002F0E2FE07461B4845881848D0F80080EE
:108B900005EB8500144901EB80004068134908602B
:108BA00005EB8500104901EB8000C0F804800F48F8
:108BB000808805EB85010C4A02EB810108810220C7
:108BC0000A498880002005EB850102F8210000E0B9
:108BD00000BF00BF27B10020024948600E207FE798
:108BE00000207DE7A8220020A0290020BC22002030
:108BF00058230020C8290020024600210CE001EB88
:108C00008100074B33F82000904204D101EB810032
:108C100003EB80007047491C0029F0D00020F9E7E1
:108C20008C2300202DE9FC5F83460E4691461F46AB
:108C3000DDE90C45002E01DA704200E03046824644
:108C40004FF0010803E09AFBF9FA08F10108CA4560
:108C5000F9DA474500D9B84634B1002E03DB05F0F8
:108C60000400042800D1641E05F0020000B167B1C1
:108C700005F0010048B944B104E0641E20215846C3
:108C8000FEF788FB0CB1A045F7D3002E05DA76423B
:108C90002D215846FEF77EFB07E005F0040004286E
:108CA00003D12B215846FEF775FB05F00200022880
:108CB0000DD105F0010050B94FB944B104E0641E74
:108CC00030215846FEF766FB0CB1A045F7D33B4672
:108CD0004A4631465846CDE9004505F09FFABDE8C1
:108CE000FC9F000070B505460949286802F097FA14
:108CF000286802F0E1FA0446204600F01F02012134
:108D00009140044A430942F8231000BF00BF70BDE0
:108D10001003020080E100E070B5054609492868AB
:108D200002F04AFA286802F0CBFA0446204600F026
:108D30001F0201219140044A430942F8231000BF59
:108D400000BF70BD8402020080E100E02DE9F04127
:108D500005460E464FF48871286802F053FA4FF426
:108D60009071286802F04EFA4FF49271286802F070
:108D700049FA4FF4A271286802F044FA1C492868A5
:108D800002F050FA286802F097FA04463746204667
:108D90003946002809DA4A074FEA126C154A00F0F2
:108DA0000F031B1F02F803C003E04A07130E124A09
:108DB000135400BF00BF286802F07EFA0446204624
:108DC00000F01F02012191400C4A430942F8231090
:108DD00000BF00BF00F01F02012191404209920034
:108DE00002F1E022C2F8001100BF00BFBDE8F0812F
:108DF0001003020018ED00E000E400E080E200E073
:108E00002DE9F04105460E464FF48E71286802F0B8
:108E1000C6F94FF4A271286802F0C1F91C4928680C
:108E200002F0CDF9286802F04BFA04463746204696
:108E30003946002809DA4A074FEA126C154A00F051
:108E40000F031B1F02F803C003E04A07130E124A68
:108E5000135400BF00BF286802F032FA04462046CF
:108E600000F01F02012191400C4A430942F82310EF
:108E700000BF00BF00F01F02012191404209920093
:108E800002F1E022C2F8001100BF00BFBDE8F0818E
:108E90008000020018ED00E000E400E080E200E065
:108EA00030B5024600201378C3F38003D3B11378A2
:108EB00003F00303012B02D0022B10D107E013882B
:108EC000C3F383139B1C0C6823440B6008E00B68FE
:108ED0000225146805EB945423440B6000E000BFA6
:108EE00000BF012030BD000001460348007A08B1F0
:108EF000012070470020FCE7802A00202DE9F04186
:108F00000446A08800EB020CB4F80480904501DD13
:108F1000104600E0A088A8EB0005E088C618B4F869
:108F20000680984501DD184600E0E088A8EB0007C0
:108F30004888B4F80080404504DB4888B4F80280D3
:108F4000404502DD0020BDE8F0818888A84202D3B8
:108F50008888604501D90020F5E7C888B84202D367
:108F6000C888B04201D90020EDE70120EBE70246B6
:108F7000002104E0505C08B101207047491C102911
:108F8000F8D30020F9E7014601F0030008B90120F9
:108F900070470020FCE70146086808B102680A60D3
:108FA0007047000010B502F06BF90020014988708D
:108FB00010BD0000182700202DE9FE4F80460F4607
:108FC000924699460FB1002612E0684600F0B6FBC3
:108FD0006A460021404602F045FD009E2A4800787E
:108FE00028B99DF8090010B90520BDE8FE8F00BF23
:108FF00052463146404604F0FAFB04460022214620
:109000004046FEF711FF0D2C1CD005DCCCB1082C1E
:109010001AD00B2C1BD118E0112C04D0A4F5405011
:109020000238A0B90FE03A46184801784046FEF7EA
:1090300079F85246164801784046FEF773F8002545
:1090400017E000BF00BF00BF00BF254611E020466B
:1090500002F08AF883460F490F4A891AC90801228B
:1090600042EA014043465A460C4901F01BFD0325E4
:1090700000BF00BFB9F1000F04D032462146404680
:10908000FEF70EFD2846B0E7642200206E22002085
:109090006D220020ECFD0200A4FD0200D0F60200CB
:1090A00070B505460E46314628467EDF0446042C40
:1090B00000D11124204670BD70B504460D461646F9
:1090C00000BF0B4801782046FEF716F870B1204625
:1090D00002F05CFC28B132462946204602F060FCD2
:1090E00004E0324629462046FEF786FB70BD0000AC
:1090F000542200202DE9F041044688460A480178B0
:109100002046FDF7F9FF0646084801782046FDF79E
:10911000F3FF07460123324639462046FFF74CFF4E
:109120000546BDE8F08100006D2200206E2200207F
:1091300070B505460C46002624B121462846FFF7A7
:10914000AFFF0646304670BD2DE9F04106460027C8
:109150004748D0F8008078E016B13446E66947E029
:109160004448007800EB40014248001D00EBC10577
:10917000001F0078401C3F49087008460078897835
:10918000884202D100203B4908706C682878012889
:109190001AD0022802D0032817D107E0686804F02B
:1091A00055FD00B10127002020744EE007E0304952
:1091B0000868002101742E4AC169116000BF2C4863
:1091C00000680028F3D140E000E03EE000BF207CD2
:1091D00000B13AE0A8686060E868A0602869E060D3
:1091E0006869A0612448007808B10020606000BF71
:1091F000224960680968401A20F07F40204988426F
:1092000008D21E496068096804F0B2FCA1680844ED
:1092100020600FE019486168006804F0A9FC054669
:10922000A068A84203D9A068401B206001E000208C
:10923000206000BF00206060A0600120207400203A
:10924000E061204604F0CEFC00BF002E84D1094826
:109250000078084949788842F8D11FB90448006865
:10926000404502D00120BDE8F0810020FBE700006E
:1092700094220020E8270020A72200209822002026
:10928000FFFF7F00F0B587B004460026182101A833
:10929000FDF7C5F8ADF806404FF6FF70844201D1E6
:1092A00007B0F0BD2046FFF7EFF8054645B10B2D9E
:1092B0000FD0112D0BD0A5F540500238E0B91AE0BF
:1092C0000E208DF8040001A8FEF74EFC29E00126CF
:1092D00027E00F208DF804001649174A891AC9089B
:1092E000022242EA01402246144901F0CFFB01A8C4
:1092F000FEF73AFC15E014E0284601F035FF07467A
:109300000C490D4A891AC908012242EA0140234644
:109310003A460B4901F0C6FB2946204604F09AF86C
:1093200000BF00BF3246074801782046FDF7FAFE2D
:1093300000BFB5E7ACFD0200A4FD0200A4EF0200EF
:1093400050EF02002522002070B505460C4622464B
:10935000024801782846FDF7E5FE70BD2422002072
:109360002DE9F04186B00446002600272046FFF78D
:10937000E7F805464DB1112D0AD0862D0AD0A5F586
:109380004050023800281BD101E001272DE02CE0DD
:1093900001262AE0182219496846FDF727F8ADF89A
:1093A00002401749174A891AC908022242EA0140B5
:1093B000224615A101F06AFB6846FEF7D5FB14E0D2
:1093C000284601F0D1FE80460D490E4A891AC90887
:1093D000012242EA01402346424619A101F062FB04
:1093E0002946204604F036F800BF00BF314620462B
:1093F000FFF7AAFF384606B0BDE8F081ACE90200ED
:10940000ACFD0200A4FD0200466C61736820667525
:109410006C6C2E20436F756C64206E6F74207374B7
:109420006F7265206461746120666F7220636F6E75
:109430006E5F68616E646C653A2025640000000010
:109440006773636D5F6C6F63616C5F64625F6361C0
:109450006368655F7570646174652829207265743E
:1094600075726E656420257320666F7220636F6E5F
:109470006E5F68616E646C653A20256400000000D0
:1094800070B54FF40041002001F08CFB044600BF92
:10949000254625B100BF2846FDF7E2FB00BF00BF0F
:1094A00001F04AF970BD00002DE9FF4100272E4868
:1094B00000F040FA2C48001F00F03CFA2B484068AE
:1094C00003902A4885680398284028490C3101EB0D
:1094D000800800BF03A94046FFF7E2FC30B10398C3
:1094E000284022490C3101EB800800E000E0F1E760
:1094F00000BF00240AE00398411C284003911B4947
:109500000C3151F820004DF82400641C022CF2D3D9
:10951000009800F0030001280DD0022814D1BDF8F6
:1095200006700421009801EB9050401E039901EB56
:109530009000039009E0BDF806700098C0F3831016
:1095400003990844039000E000BF00BF0648001FD5
:1095500000F0E9F9064616B1044903984860384618
:1095600004B0BDE8F081000050300020382C00200D
:10957000FFF786FF0649074A891AC908032242EA0B
:10958000014005A101F078FA01E0FFF7C0F8FCE71F
:1095900034FE0200A4FD0200424C452054656D706B
:1095A0006C617465206578616D706C653A4C6F67AD
:1095B0002075736532312075617274206173206F7C
:1095C0007574707574207465726D696E616C0000DD
:1095D0002DE9FF4F87B0044691461E46A246254618
:1095E000BAF806009AF805104843001F0690BAF82A
:1095F00006B0301DB0FBFBF00590301DB0FBFBF159
:109600000BFB11000490D9F80000811906988142E3
:1096100002D90698801B01E0D9F800000746C9F876
:10962000007003E02D680598401E059005980028FD
:10963000F8D103900498ABEB0008B84501D938463F
:1096400000E04046804623E00399089808440290D1
:10965000281D049908440190149828B14246DDE978
:109660000110FCF7C3FE04E04246DDE90101FCF70E
:10967000BDFE002004902D68A7EB08070398404426
:109680000390BB4501D9384600E05846804600BFEC
:10969000002FD9D10BB0BDE8F08F000070B50346A4
:1096A0000C469CB101F0AAFA054600220AE00848DF
:1096B00000EB820108881E68B04202D11A600020C7
:1096C00070BD521CAA42F2D30520F9E70020F7E74B
:1096D0000000000070B504460D462946204600F003
:1096E000BDF880F0010600BF00BF00BFBFF35F8F71
:1096F00000BF00BF00BF304670BD70B504460D46C8
:1097000000BF00BF00BFBFF35F8F00BF00BF00BF3F
:109710002946204600F0E9F870BD70B504460D46B4
:1097200000BF00BF00BFBFF35F8F00BF00BF00BF1F
:109730002946204600F083F870BD00000EB50021D8
:109740000091019102910449096800919DE80E0081
:1097500080E80E000EBD00006022002070B50546B6
:109760000E464FF6FF70854201D1002000E0681CD4
:1097700084B208E02146304600F0B7F808B1204630
:1097800070BD601C84B2FF2CF4DD4FF6FF70F7E76C
:1097900070B504462046FCF788FD05460DB1002053
:1097A00070BD1120FCE710B5044609B90E2010BDAC
:1097B00092FBF3F003FB102008B10920F7E72160CA
:1097C00000206060A060A281E38100BFEFE770B578
:1097D00004460D4629462046FCF71CFD18B12A8890
:1097E0002168881870BD0020FCE770B505460C465E
:1097F00020886188884204D12846FCF74DFD01206D
:1098000070BD0020FCE770B504460D462946204691
:10981000FCF725FD18B16A882168881870BD002002
:10982000FCE770B505460C4620886188884204D163
:109830002846FCF70BFD012070BD0020FCE770B549
:1098400005460C4604F01F0301229A40D1436209E9
:1098500005EB820000F087F8064670BD70B505463E
:109860000C4604F01F03012202FA03F1620905EB22
:10987000820000F099F804F01F0201219140084095
:1098800008B1012070BD0020FCE72DE9F04106463B
:109890000D46002421E056F82400C04390FAA0F0C1
:1098A000B0FA80F814E008EB4417AF4200D312E09E
:1098B00039463046FFF7D2FF10B93846BDE8F0818F
:1098C00056F82400C04390FAA0F0B0FA80F800BF28
:1098D000B8F1200FE7D300BF641C681E012101EB23
:1098E0005010A042D7D82846E8E710B502464809EC
:1098F00052F8200001F01F040123A340184008B1D2
:10990000012010BD0020FCE770B505460C4604F0B0
:109910001F03012202FA03F1620905EB820000F045
:1099200059F8064670BD10B504460021204600F0E7
:1099300030F810BD10B504460121204600F04AF869
:1099400010BD10B504460121204600F02DF810BDD1
:10995000F8B504460D466A4629462046FCF7F1FC58
:1099600006460098F8BDF8B504460D466A462946F5
:109970002046FCF7CCFC06460098F8BDF8B5044636
:109980000D466A4629462046FCF7DBFC0646304673
:10999000F8BDF8B504460D466A4629462046FCF750
:1099A000B6FC06463046F8BDF8B504460D466A4694
:1099B00029462046FCF79EFC06463046F8BDF8B521
:1099C00004460D466A4629462046FCF787FC0646B3
:1099D0003046F8BDF8B504460D466A46294620468D
:1099E000FCF788FC06460098F8BDF8B504460D461D
:1099F0006A4629462046FCF7B1FC06460098F8BDA9
:109A0000F8B504460026002000906846FDF778F976
:109A1000206800686168884215D920680068401E87
:109A2000226810600178204600F033F80646207A5C
:109A300021680978401AC5B220680079A84201DA85
:109A40002068057100BF9DF80000FDF75FF9304602
:109A5000F8BD0246D068081A138AB0FBF3F0C0B212
:109A60007047F8B504460D462E4600200090684623
:109A7000FDF746F931462046FFF7EBFF21680A68FB
:109A8000511C2368196010709DF80000FDF73EF925
:109A9000F8BD0246138AD06801FB0300704710B579
:109AA000014600BF09B90E2010BD00BF087A0B792E
:109AB000C01AC2B2D1E90030186005E00868036836
:109AC000581C0C6820601A70101EA2F10103DAB253
:109AD000F4D10B68187100BFE6E730B502460B46BB
:109AE000D40802F00702012090401D5D284030BDDF
:109AF00030B50B46C20800F007009C5C012585408C
:109B00002C439C5430BD01464FF08040405808B172
:109B1000012070470020FCE708B500224FF080418B
:109B20000A500958009100BF08BD000001490860B3
:109B30007047000008030040012291070A50704757
:109B400010B500240C48007808B1852411E00020ED
:109B50000949886048600861C860084801F07EFBD8
:109B6000044601F061FA08B901F06EFB01200249D8
:109B70000870204610BD000018270020E174020084
:109B800008B5002000906846FDF7BAF80748C0689D
:109B9000401E0649C8600846C06808B9FFF702FAC7
:109BA0009DF80000FDF7B2F808BD0000182700205E
:109BB0002DE9F04188B004460F46154626781A482C
:109BC00040F826501949386941F82600787F18492D
:109BD0008855202239466846FCF708FC04964FF069
:109BE000000820781249085C50B10DB1114800E01E
:109BF000002002466946201D01F0C0FC80460EE0B0
:109C000020780B49085C50B90DB10B4800E00020EA
:109C10000246694604F10C0001F0E8FB804640462C
:109C200008B0BDE8F08100007022002078220020FA
:109C300080220020A9E00200B9DE02000FB438B58E
:109C40000446059810B938BC5DF814FB002000905C
:109C500006A800906A462046059900F012F80020F8
:109C6000009000BFEFE770B50446A06800B970BD72
:109C7000D4E90403A268216898470020A06000BFCF
:109C8000F5E72DE9FC5F82460D4614460DB9BDE8A7
:109C9000FC9F00BF2E786D1C06B9E1E0252E70D127
:109CA00000274FF0010900BF2E782B2E0CD02D2E4F
:109CB00002D0302E0CD103E047F001076D1C0AE002
:109CC00047F002076D1C06E047F004076D1C02E038
:109CD0004FF0000900BF00BFB9F1000FE4D14FF011
:109CE000000800BF2A2E06D12168081D20600868E0
:109CF00080446D1C0DE02E78302E01DB392E00DD06
:109D000007E06D1CA6F1300008EB880100EB41086C
:109D1000E8E700BF4FF0000B2E782E2E10D16D1CFF
:109D200000BF2E78302E01DB392E00DD07E06D1CE0
:109D3000A6F130000BEB8B0100EB410BF1E700BF0C
:109D40002E7800BF6C2E01D0682E02D16D1C2E78AB
:109D500000E000E0F6E700BF692E21D008DC252EE8
:109D60006DD0582E39D0632E0CD0642E6CD116E0F5
:109D7000702E4CD0732E3ED0752E1FD0782E63D10E
:109D80002AE065E02168081D2060D1F8009009F004
:109D9000FF00019050460199FDF7FCFA55E000BF25
:109DA0002168081D2060D1F800905B460A224946D0
:109DB0005046CDE90087FEF735FF46E02168081DD3
:109DC0002060D1F800905B460A2249465046CDE912
:109DD000008704F023FA38E000BF2168081D2060E6
:109DE000D1F800905B46102249465046CDE90087E5
:109DF00004F014FA29E02168081D20600868019029
:109E00003B4642465046019903F078FE1DE021682A
:109E1000081D2060D1F8009030215046FDF7BAFAB5
:109E200078215046FDF7B6FA002008210B46102293
:109E3000CDE900104946504604F0F0F905E025212F
:109E40005046FDF7A7FA00E000BF00BF6D1C03E01D
:109E500031465046FDF79EFA287800287FF41AAF65
:109E600000BF9AF80C0010B15046FFF7FCFE00BF8F
:109E70000DE70000F8B504460E4615461F4600BF24
:109E80007CB90E203849394A891AC9080122009044
:109E900042EA0140364B37A238A100F013FE0E20F3
:109EA000F8BD00BF00BF206878B908202E492F4AAE
:109EB000891AC9080122009042EA01402C4B3AA2BB
:109EC0002EA100F0FFFD0820EAE700BF00BF7DB92A
:109ED00009202549254A891AC9080122009042EA29
:109EE0000140234B33A225A100F0ECFD0920D7E768
:109EF00000BF00BF31462046FCF7EFFD78B91020C7
:109F000019491A4A891AC9080122009042EA0140F7
:109F1000174B29A219A100F0D5FD1020C0E700BF02
:109F200000BF6068006800FB05F231462046FCF780
:109F3000DEFD78B910200C490C4A891AC9080122A3
:109F4000009042EA01400A4B254A0CA100F0BAFDFC
:109F50001020A5E700BF20683B462A463146D0F8CE
:109F600010C02046E0479BE724FE0200A4FD02004B
:109F70000BEC0200705F6673000000002573206325
:109F80006865636B206661696C656420696E202575
:109F900073282920776974682076616C7565203094
:109FA0007825782E00000000705F66732D3E705F8C
:109FB000617069006C656E00616464725F69735FF3
:109FC000706167655F616C69676E656428705F6664
:109FD000732C20706167655F616464722900000002
:109FE00094F7020002460120044B58741846007A88
:109FF00008B9012070470020FCE70000802A0020FB
:10A0000070B504460D46012C01D0032C0BD1002065
:10A0100005494874012C01D1012000E000200249CB
:10A02000087402F041FC70BD802A002070B504461F
:10A030000E46022C02D0032C00D070BD1C48007AC2
:10A0400020B1012803D0022826D101E0F5E723E062
:10A050000025022C02D0032C0CD105E01548006825
:10A0600001F0CCFB054606E01248006801F0B4FBA5
:10A07000054600E000BF00BF6DB100200C4908722A
:10A08000022C00D100E00D2001460A480068FDF7CF
:10A09000D3FC02F071FB00BF00BF0548407C10B943
:10A0A00002F002FC01E000F0C5FF00BFC5E70000C0
:10A0B000802A0020D82200202DE9F84304460F46CC
:10A0C00016461D46DDF8208000BF84B90E20594990
:10A0D000594A891AC9080122009042EA0140574BA7
:10A0E00057A259A100F0EEFC0E20BDE8F88300BF96
:10A0F00000BF7EB90E204F494F4A891AC908012274
:10A10000009042EA01404D4B5AA24FA100F0DAFC08
:10A110000E20EAE700BF00BF206878B90820454953
:10A12000454A891AC9080122009042EA0140434B7E
:10A1300052A245A100F0C6FC0820D6E700BF00BF30
:10A140007DB909203B493C4A891AC908012200907F
:10A1500042EA0140394B4CA23BA100F0B3FC09207C
:10A16000C3E700BF00BF60684068B5FBF0F100FBCB
:10A17000115078B109202F492F4A891AC9080122A4
:10A18000009042EA01402D4B40A22FA100F09AFC22
:10A190000920AAE700BF00BF3846FCF796FC78B953
:10A1A00010202449244A891AC9080122009042EA51
:10A1B0000140224B40A224A100F084FC102094E72F
:10A1C00000BF00BF3046FCF780FC78B91020194969
:10A1D000194A891AC9080122009042EA0140174B26
:10A1E0003BA219A100F06EFC10207EE700BF00BF6B
:10A1F0002A4639462046FCF77AFC78B910200D49EA
:10A200000D4A891AC9080122009042EA01400B4B0D
:10A2100038A20DA100F056FC102066E700BFCDF873
:10A22000008020682B4632463946D0F80CC02046C4
:10A23000E0475AE724FE0200A4FD0200F8EB02000A
:10A24000705F667300000000257320636865636BB0
:10A25000206661696C656420696E20257328292059
:10A26000776974682076616C756520307825782E62
:10A2700000000000705F737263000000705F66731F
:10A280002D3E705F617069006C656E0021286C6501
:10A290006E202520705F66732D3E705F666C617363
:10A2A000685F696E666F2D3E70726F6772616D5F79
:10A2B000756E697429000000616464725F69735F80
:10A2C000616C69676E656433322864657374290054
:10A2D000616464725F69735F616C69676E65643342
:10A2E00032282875696E7433325F7429705F737217
:10A2F00063290000616464725F69735F77697468E1
:10A30000696E5F626F756E647328705F66732C2070
:10A31000646573742C206C656E2900002DE9FF477D
:10A320000C4615461E46DDE90C78684600F0A2F89A
:10A33000814644EA450040EA860040EA072040EAB8
:10A34000084109F5E060009A40F82210BDE8FF8757
:10A350002DE9FF470C4615461E46DDE90C78684698
:10A3600000F098F8814644EA450040EA860040EA59
:10A37000072040EA084109F5E060009A40F8221001
:10A38000BDE8FF871CB5044600200090034601226B
:10A39000014601902046FFF7C1FF1CBD1CB50446D5
:10A3A0000020009003460122014601902046FFF75D
:10A3B000CFFF1CBD7CB505460C460020009023460F
:10A3C0000246014601902846FFF7A8FF7CBD7CB5F8
:10A3D00005460C46002000902346024601460190A7
:10A3E0002846FFF7B5FF7CBD1CB504460020009051
:10A3F00003460122114601902046FFF78FFF1CBD46
:10A400001CB504460020009003460122114601902D
:10A410002046FFF79DFF1CBD73B50D46684600F052
:10A4200019F8044604F5E060009950F8210020F482
:10A43000403104F5E060009A40F82210009950F88D
:10A44000210040EA054104F5E060009A40F822103E
:10A450007CBD000001460868202802D24FF0A040D1
:10A460007047087800F01F0008600148F8E7000016
:10A470000003005001460868202802D24FF0A04097
:10A480007047087800F01F0008600148F8E70000F6
:10A490000003005001460868202802D24FF0A04077
:10A4A0007047087800F01F0008600148F8E70000D6
:10A4B0000003005031B56846FFF7DCFF0446012178
:10A4C000009A01FA02F0C4F8080500BF38BD31B5A2
:10A4D0006846FFF7DFFF04460121009A01FA02F007
:10A4E000C4F8080500BF38BD3CB50B46084D30CD5B
:10A4F000CDE90045014606E05DF82140D4F810554D
:10A500001560121D491CC4188C42F5D83CBD0000D2
:10A51000E4EA020001460148084470470060004038
:10A5200038B504462046FFF7F5FF002101602046BC
:10A53000FFF7F0FF0068009000BF38BD10B504467B
:10A540002046FFF7E7FF0068012800D110BD00207A
:10A55000FCE7000070B504460E46FCF775FD0546A5
:10A56000681C08B9284670BDE8B2E168087100BFF0
:10A570000C48D0F8100430B90A48C0F81044002044
:10A58000E16808600BE00748D0F81004C068006874
:10A59000E16808600348D0F81004C06804602846E9
:10A5A000E1E70000382C00202DE9F04F93B08246FF
:10A5B0000E4617469846DDF87090304600F017FCBE
:10A5C00018210DA8FBF72BFF0D97CDF83880CDF89B
:10A5D000489000252B46082207A9304600F024FCAD
:10A5E000082509980A90BDF82000ADF82C00BDF8A8
:10A5F0002200ADF82E0000208DF83100079800F001
:10A60000030001281BD107984FEA902B0798C0F34D
:10A61000C2008DF830000798C0F38314A2002B46C7
:10A6200001A9304600F000FC05EB84050DA80AAB3B
:10A63000224601A90090584600F018FB27E0079831
:10A6400000F00300022822D107984FEA905B079898
:10A65000C0F3C2008DF8300000BFBBF1080F01D27B
:10A66000584600E0082004462B46224605A93046FD
:10A6700000F0DAFB2544ABEB040B0DAB0AAA214634
:10A6800005A800F033FABBF1000FE6D100BF304659
:10A6900000F0BBFB13B0BDE8F08F704710B501248C
:10A6A000204603F02BFC10BD70B505460A4C2078FF
:10A6B0000A49085C18B1201D01F004F807E0207871
:10A6C0000649085C18B904F10C0000F02BFF00BF2C
:10A6D000002003F013FC70BDE02200208022002047
:10A6E00038B504460D4604484023044A29460090E4
:10A6F0002046FFF759FF38BDD1D40200A02A002020
:10A7000010B502460B4C04EBC203012906D0022906
:10A7100006D0032906D0042908D105E0022007E06D
:10A72000042005E0187903E0587901E0002000BF1B
:10A7300000BF10BDA4FD020010B54FF0FF34FFF7BD
:10A74000ADFF04210548FFF705FF044600BF0120C7
:10A750000249C968487100BF10BD000094FD0200A5
:10A760002DE9F04F8BB0FCF725FE18B100200BB09F
:10A77000BDE8F08F0020B749C1F8180400BF00BF42
:10A7800000BFBFF34F8F00BF00BF00BF0846406847
:10A790000A90084684680A9820400C3101EB800A30
:10A7A000002500260020069000BF0AA95046FEF7AB
:10A7B00077FBA8B1A748D0F8180488B9A548006865
:10A7C0000A99884205D8A3480068A2494860002039
:10A7D000CDE70A9820409F490C3101EB800A00E048
:10A7E00000E0E2E700BF00270BE00A98411C204090
:10A7F0000A9198490C3151F8200007A941F8270027
:10A800007F1C022FF1D3079800F0030002287CD1AF
:10A810000798800D059050210798B1EB905F02DDFD
:10A820000798800D00E050208146079869F39F50FB
:10A83000079009F1080004900798C0F3C200069041
:10A840008548049900F076FA0546002D5BD028462D
:10A8500000F0CDFA3346082207A9284600F0F5FAA1
:10A8600008360A982040611C081A4FEA8008C14542
:10A8700035D9B8F1000F06D00A98204075490C313F
:10A8800001EB800001E073480C300390B8F1000F39
:10A8900001D0404600E0484600F0FF0BB8F1000F41
:10A8A00002D06C480C3000E000200290B8F1000F9C
:10A8B00002D0A9EB080000E00020C0B201903346AE
:10A8C0005A462846039900F0C0FA5E44029828B11F
:10A8D00033462846DDE9012100F0B7FA0CE00A987A
:10A8E00020405C490C3101EB800B33464A46594607
:10A8F000284600F0AAFA00BF0598C01C0A9901EB8F
:10A9000090000A9000BF44E0FFE7079800F00300C2
:10A9100001283ED10798C0F38310062803DA079870
:10A92000C0F3831000E00620079960F389110791B6
:10A930000798C0F3831000F102080798C0F3C20023
:10A9400006904FEA8801444800F0F4F90546FDB14D
:10A95000284600F04CFA3346082207A9284600F0A2
:10A9600074FA083600270EE00A98421C20400A922A
:10A97000384A0C3202EB800133460422284600F0AC
:10A9800064FA361D7F1C0798C0F38310B842EBD8D9
:10A9900000BFE5B32F48D0F81084D0F8180418B1E0
:10A9A000284600F032FA31E019E04FF0000900BF0C
:10A9B000D8F80C004079012800D18146B9F1000F88
:10A9C00008D000BFD8F800002946026840469047EA
:10A9D00000BF00BFD8F80C00D0F8008000BFB8F16D
:10A9E000000FE2D1284600F010FA0020059005A8DB
:10A9F000FCF786F91748D0F8180410B915490A98D9
:10AA000048609DF81400FCF781F900BF1DE0FFE7E6
:10AA10001048D0F810840AE0C146D9F800008168D7
:10AA20004846884700BFD8F80C00D0F80080B8F13D
:10AA3000000FF1D109490A4A891AC908022242EADB
:10AA4000014008A100F018F800BFFCF7B3FC80F04B
:10AA500001008CE6382C002054FE020034FE020077
:10AA6000A4FD02004261636B656E647320666C75C1
:10AA7000736865640000000070B504460D4600234D
:10AA80001A462946204602F0CDFF70BDF8B50546AE
:10AA90000E461446009401236A463146284602F0C9
:10AAA000C1FFF8BD2DE9FC4106460F4614461D4680
:10AAB0000094019502236A463946304602F0B2FFFF
:10AAC000BDE8FC812DE9FE4306460F4614461D46AF
:10AAD000DDF8288000940195CDF8088003236A46AC
:10AAE0003946304602F09EFFBDE8FE832DE9F05F57
:10AAF00007460E4690461D46082E01D9BDE8F09F38
:10AB000095F80C90002028732946404601F0B2FDCC
:10AB100000240CE0B44205D23A5D1CA12846FFF7A0
:10AB20008DF803E01BA12846FFF788F8641C082C69
:10AB3000F0D319A12846FFF781F800241AE0B442A7
:10AB400013D217F804A0FBF74DFC006810F80A00B8
:10AB500000F03E0008B1504600E02E2083465A46E1
:10AB60000EA12846FFF76AF803E00DA12846FFF77B
:10AB700065F8641C082CE2D301222946404601F006
:10AB800055FD85F80C9000BFB8E700002025303255
:10AB900078000000202020007C00000025630000D9
:10ABA000200000002DE9F04106460F4600BFFF20BF
:10ABB0000D498860002008604860C1F81804C1F899
:10ABC000140481F82004094800F019F9044614B16E
:10ABD0002046BDE8F081064800F053F905480649D3
:10ABE000401AC5080020F4E7382C002054FE02006B
:10ABF000B8ED020054FE0200A4FD02000248034921
:10AC0000401AC0087047000054FE0200A4FD020074
:10AC100013B50C4621466846FEF740FD28B90448A6
:10AC2000009A00EBC20108681CBD0020FCE7000090
:10AC3000A4FD020070B50C48D0F8104401200A4968
:10AC400081F820040CE000BF0120E168487100BFDA
:10AC50002546286841682846884700BFE0680468A0
:10AC6000002CF0D170BD0000382C00202DE9FF47EA
:10AC700007460C46164698460C9D95F80C90002009
:10AC800028732946404601F0F5FC072E47D2DFE83D
:10AC900006F004090F161F2A370039462846FEF72A
:10ACA000CDFF3DE0394628462268FEF7C7FF37E072
:10ACB00039462846D4E90023FEF7C0FF30E0A068FB
:10ACC000009039462846D4E90023FEF7B7FF27E075
:10ACD000D4E90201CDE9000139462846D4E9002330
:10ACE000FEF7ACFF1CE0D4E902122069CDE90012A6
:10ACF000029039462846D4E90023FEF79FFF0FE073
:10AD0000D4E90223D4E90410CDE90023CDE90210EF
:10AD100039462846D4E90023FEF790FF00E000BF43
:10AD200000BF00222946404601F080FC85F80C90C7
:10AD3000BDE8FF872DE9F84F07468A46388AA0F11B
:10AD400004080AF104004044401EB0FBF8F0C0B211
:10AD500000903846FEF754FE044614B90020BDE8C2
:10AD6000F88F0020207101216171A4F8068025462A
:10AD70000098A0F1010B2C462F604FF0000912E063
:10AD80003846FEF73DFE064636B16079401C6071DC
:10AD90002E603760354604E0204600F008F80020B9
:10ADA000DDE709F10109D945EAD32046D7E72DE9C6
:10ADB000F05F0446274697F805802646A8F1010B68
:10ADC000002501E036686D1C5D45FBD3D6F800A078
:10ADD0002646002507E0D6F8009031465046FEF79B
:10ADE00040FE4E466D1C4545F5D3BDE8F09F70B55D
:10ADF000044625460121281DFEF7AAFD70BD10B5A9
:10AE000004462046FEF74BFE10BDF8B50446264624
:10AE10000121301DFEF7E9FD00906D46287810B93C
:10AE20002046FFF7C4FFF8BD2DE9FC4105460E465C
:10AE300014461F46019401203B4601AA314600906A
:10AE40002846FEF7C5FBBDE8FC812DE9FC4105461F
:10AE50000E4614461F46019400203B4601AA314687
:10AE600000902846FEF7B4FBBDE8FC8100BF00BFA0
:10AE700000BFBFF35F8F00BF00BF00BF00210160B4
:10AE80007047002182689160826811618268516117
:10AE90008268D160826851608268116070470000EA
:10AEA0002DE9F04192B080461748007810B912B0F1
:10AEB000BDE8F0811CE03420049004A905A861DFFE
:10AEC000044604B115E005AD104901A800F0F3F8FF
:10AED00009E000BF03980646376828467168B847FE
:10AEE00001A800F009F900BF03980028F1D100BFC4
:10AEF000E1E700BF052C04D000BF2046FBF7B0FE01
:10AF000000BF00BFD3E70000532300203CEE020047
:10AF100038B51648007808B9082038BD0120144912
:10AF2000087002F0A7F8112801D10020F5E70220EF
:10AF300002F0BEF8002000906846FBF7E1FE11DF4A
:10AF400004460020094908709DF80000FBF7DEFE6A
:10AF50000CB12046E1E700200549087002F0EAFC48
:10AF6000032002F0A5F80020D7E7000050230020BE
:10AF7000522300201CB51B48007808B108201CBDD6
:10AF8000012019490870002002F074F8112801D13D
:10AF90000020F4E7002002F08BF8144800680190CC
:10AFA000002000906846FBF7ABFE114901A810DFB6
:10AFB00004460CB9012000E000200A4908709DF801
:10AFC0000000FBF7A3FE0CB12046D8E7002006499D
:10AFD00008700849087002F0E3FC012002F068F8EC
:10AFE0000020CCE7502300205223002018EE02005E
:10AFF000A56B0200512300203EB50A49684600F0C7
:10B000005AF809E0684600F053F80446256860687D
:10B01000A847684600F070F8684600F049F8002834
:10B02000F0D13EBD0CEE02000148007870470000F0
:10B030005023002010B50748007808B9082010BD3B
:10B040000548007810B1FFF763FFF8E7FFF792FFBC
:10B05000F5E7000052230020502300202DE9FF4196
:10B06000074618E003A84BDF044604B114E00F497B
:10B07000684600F020F809E000BF029805462E68F7
:10B0800069680398B047684600F036F800BF029838
:10B090000028F1D100BFE5E700BF052C04D000BFB8
:10B0A0002046FBF7DDFD00BFBDE8FF815CEE02003E
:10B0B00001468868704770B504460D4625602868CB
:10B0C0006060204600F001F870BD14E0D0E9002176
:10B0D0005268914202D1002181607047416809683D
:10B0E00042685268914203D0416809688160F4E780
:10B0F000416808314160E9E710B50446A06800B92D
:10B1000010BD2168A06889680844A060D4E90110D6
:10B110004968884205D16068083060602046FFF7C2
:10B12000D4FF00BFECE7000070B502460D4B03F5FD
:10B13000947413E0E61AF01000EBD076761003EB6F
:10B14000C6010D68954201D90C4606E0954202D22F
:10B1500001F1080301E0486870BD00BFA342E9D3D4
:10B160000020F9E764EC020030B504462046FFF702
:10B17000DBFF05460DB9024830BD2846FCE700005C
:10B1800050EC02000146D1F88004C1F880047047F9
:10B190000246505808B1012070470020FCE708B56E
:10B1A000002242504258009200BF08BDC0F8081566
:10B1B0004FF4A2631A507047C0F808137047C0F8E4
:10B1C000041370470246D2F80403084008B1012076
:10B1D00070470020FCE701224250704740F21453B0
:10B1E0001A5040F20C53195070470146D1F88004B0
:10B1F000C1F8800470470246505808B101207047DA
:10B200000020FCE708B5002242504258009200BFDF
:10B2100008BDC0F808154FF4A2631A507047C0F873
:10B2200008137047C0F804137047014640F23C50C1
:10B230004058704701224250704740F20C53195059
:10B2400040F214531A50704710B500F047F801202F
:10B250000149086000BF10BD1805004001460020EC
:10B26000064A12790AB1852006E0044A11600122DB
:10B27000024B1A7100225A7170470000842200208C
:10B2800010B50C20FEF758FC00BF00BF0348006853
:10B29000C0F300400028F8D110BD000018040040A1
:10B2A00070B5044604B970BD024EA5012846B047EA
:10B2B00000BFF8E791EB02000146080B40B270476F
:10B2C0000146080B40B27047014601F06040B0F102
:10B2D000005F01D1012070470020FCE7F0B5062394
:10B2E00000200146C41700EBD4646411A40004F1EB
:10B2F000E024D4F800410246C51700EBD5656D1176
:10B30000A0EB45160125B5402C400CB1012400E00E
:10B31000002444BB00221C4610462146002807DAC0
:10B320004D072F0E104D00F00F06361FAF5503E0EE
:10B330004D072E0E0D4D2E5400BF00BF002000BF44
:10B34000012181400A4A440942F8241000BF00BF8D
:10B35000012181404209920002F1E022C2F800116D
:10B3600000BF00BF00BFF0BD18ED00E000E400E04A
:10B3700080E200E02DE9F84307460E46384601F02A
:10B38000CBF90446D4B14FF0000800200090684685
:10B39000FBF7B6FC207910B14FF0010802E02660FF
:10B3A000012020719DF80000FBF7B0FCB8F1000F00
:10B3B00003D011252846BDE8F88300BF00252846A4
:10B3C000F9E770B50546284601F0A6F9044614B120
:10B3D00000202060207170BD10B50249024802F0C3
:10B3E000BDFD10BDBC270020002000402DE9F0412C
:10B3F00005460E461746287900EB400101EBC000D8
:10B400001A4901EB80044FF0000894F82A0020B19B
:10B410004FF008084046BDE8F0812A79144B53F8F4
:10B4200022102868FFF7A6FF18B14FF01108404618
:10B43000F1E731462846FBF7CBFC676030692060B6
:10B44000606818B1317F2846FDF7DAFC28680421CE
:10B45000C0F8001500BF0020A061E06184F8290059
:10B460006061012084F82A004046D4E7BC27002010
:10B4700068EB02002DE9F04104460F469046207922
:10B4800000EB400101EBC0001C4901EB80052046A8
:10B4900000F036F818B111263046BDE8F081C5F845
:10B4A0001480AF600020286285F8280000264FF441
:10B4B0008E712068FFF773FE08212068FFF78BFE6E
:10B4C0002946206802F0C3FC6868A0B929462068B4
:10B4D00002F0A2FC08B90F260BE000BF4FF48E71FA
:10B4E0002068FFF755FE0028F8D00C212068FFF7F0
:10B4F00072FE002068613046CFE70000BC270020C4
:10B500000146087900EB400202EBC000044A02EB5E
:10B510008000406908B1012070470020FCE700006E
:10B52000BC27002070B50446207900EB400101EBF8
:10B53000C0000C4901EB800520680021C0F800150F
:10B5400000BF686810B12046FDF7E6FB204600F01A
:10B550006DFE2068FFF735FF002085F82A0068603F
:10B5600070BD0000BC27002010B50249024802F05F
:10B57000B7FD10BD98270020002000402DE9F041C4
:10B5800005460E461746287900EBC000194901EB25
:10B5900080044FF0000894F8200020B14FF0080814
:10B5A0004046BDE8F0812A79134B53F822102868F1
:10B5B000FFF7E0FE18B14FF011084046F1E73146C1
:10B5C0002846FBF7C7FB676030692060606818B1E8
:10B5D000317F2846FDF7BAFB28680821C0F800151E
:10B5E00000BF0020A061E0616061012084F82000BC
:10B5F0004046D6E79827002038EB02002DE9F047B7
:10B60000044688469146207900EBC000244901EBAE
:10B6100080054046FFF758FE18B910263046BDE8B1
:10B62000F087204600F03EF810B111263046F6E7CC
:10B63000C5F81490C5F8088000264FF49071206872
:10B64000FFF7E0FD4FF4AC712068FFF7DBFD2068E9
:10B650006A69A968C0F844154FF4A9631A5000BF7D
:10B6600008212068FFF7E6FD6868B0B900BF4FF415
:10B6700090712068FFF7BFFD82464FF4AC712068DF
:10B68000FFF7B9FD0746BAF1000F01D1002FEED048
:10B6900007B10F260020686100BF3046BFE70000F9
:10B6A000982700200146087900EBC000044A02EB0D
:10B6B0008000406908B1012070470020FCE70000CD
:10B6C0009827002070B50446207900EBC0000C4993
:10B6D00001EB800520680021C0F8001500BF6868F4
:10B6E00010B12046FDF7FEFA204600F060FD20680C
:10B6F000FFF767FE002085F82000686070BD00003D
:10B700009827002070B50546AE883046FDF774FADC
:10B71000044674B14FF6FF7340F2F31205F10801CD
:10B7200004F10A00FDF7EAFB607221463046FBF7A0
:10B7300051FF70BD2DE9F0410546EF7BAE88012F2A
:10B7400001D0BDE8F0814FF6FF70FDF755FA0446D1
:10B750001CB9042001F04CFEF3E700BF2680002056
:10B7600020720E480168C4F80A104068C4F80E0040
:10B7700000BF4FF6FF7340F2F31205F1100104F120
:10B780000A00FDF7BBFB60720548C08918B9214665
:10B790003046FBF71FFF00BFD3E700001022002058
:10B7A000A02300202DE9F0410646B7883846FDF772
:10B7B00023FA05466DB16868FBF78AFA044614B1AE
:10B7C000204601F015FE00BF4FF6FF70288000BF35
:10B7D00000BFBDE8F081000001460748C068401C7A
:10B7E000054AD0601046C068082803D90020D06000
:10B7F000012070470020FCE7802A0020014600203D
:10B80000154AD060087910B1012821D116E0D1E99C
:10B810000530181AB0F5805F03D2D1E90530181A47
:10B8200001E04FF480500246886983188B61D1E9AA
:10B830000503834201D1012070470AE00869401CDA
:10B840000861D1E90420824201D10120F4E700E03F
:10B8500000BF00BF0020EFE7802A00202DE9F04163
:10B860000446A51D28881249C98988421DD16889C6
:10B8700002281AD1B4F804804046FDF7BDF9064607
:10B8800096B105F10C00FBF709FD20B131464046A9
:10B89000FBF7A0FE08E07068FBF71AFA074617B13D
:10B8A000384601F0A5FD00BF00BFBDE8F0810000F3
:10B8B000A023002030B502460A23002015E000EB4B
:10B8C00080040C4D05EB840464688C420BD200EBC1
:10B8D000800405EB8404646804F580548C4202D92A
:10B8E0000023108003E0441CA0B20228E7DB00BF65
:10B8F000184630BDA0290020024602EB82000A4B08
:10B9000003EB80000089084481B202EB820003EB64
:10B9100080004089084481B2B1F5806F01DA0120CE
:10B9200070470020FCE70000A02900208A7D022A41
:10B9300004DD0389CA88D21C1A4402814389CA885B
:10B94000D21C9A1A4281704738B504460020082359
:10B95000034A214600900348FEF7AEFB38BD0000C5
:10B96000A4EB02005823002008B5002000900448F2
:10B970000823044A01680448FEF79EFB08BD000046
:10B98000BC2200209CEB02005823002010B5044686
:10B99000024801782046FBF7AFFB10BD552200207E
:10B9A0002DE9F04704460E461746002500BF18480B
:10B9B00001782046FBF7A0FB08B1012000E002203F
:10B9C000804604F5807188B2072100F081F90546B0
:10B9D000ADB1052D13D02846FFF7C6FB81460D49B2
:10B9E0000D4A891AC908012242EA014023464A4603
:10B9F0000A49FFF757F82946204601F055FD3B4616
:10BA0000324641462046FBF70FFEBDE8F0870000B6
:10BA100056220020E4FD0200A4FD020044F40200CE
:10BA200030B587B004460D4602208DF8040020880A
:10BA3000ADF806006079C0F3800008B1012000E095
:10BA400002208DF80C008DF80D5001A8FCF7C4F809
:10BA500007B030BD70B504460D460021204601F008
:10BA60003BFF70BD70B586B004460D4616460520F6
:10BA70008DF80000ADF802402046FCF7D5FFADF888
:10BA80000400029503966846FCF7BAF806B070BD4C
:10BA900070B50546002405E0044850F824102846F7
:10BAA0008847641C042CF7D370BD000044EA0200F0
:10BAB0002DE9F041054601260027E86802F0D8FD8F
:10BAC00004462878082804D0092809D0132818D15A
:10BAD00015E0687A18B914B1204602F0FBFD11E0B8
